{
  "_format": "hh-sol-artifact-1",
  "contractName": "BettingAndPotManagement",
  "sourceName": "contracts/Actions.sol",
  "abi": [
    {
      "inputs": [
        {
          "internalType": "uint256",
          "name": "_roomId",
          "type": "uint256"
        },
        {
          "internalType": "address",
          "name": "_cardManagementAddress",
          "type": "address"
        },
        {
          "internalType": "address",
          "name": "_roomManagementAddress",
          "type": "address"
        },
        {
          "internalType": "address",
          "name": "_userManagementAddress",
          "type": "address"
        },
        {
          "internalType": "uint256",
          "name": "_minimumBet",
          "type": "uint256"
        },
        {
          "internalType": "address",
          "name": "_vrfCoordinator",
          "type": "address"
        },
        {
          "internalType": "address",
          "name": "_linkToken",
          "type": "address"
        },
        {
          "internalType": "bytes32",
          "name": "_keyHash",
          "type": "bytes32"
        },
        {
          "internalType": "uint256",
          "name": "_fee",
          "type": "uint256"
        }
      ],
      "stateMutability": "nonpayable",
      "type": "constructor"
    },
    {
      "anonymous": false,
      "inputs": [
        {
          "indexed": true,
          "internalType": "address",
          "name": "player",
          "type": "address"
        },
        {
          "components": [
            {
              "internalType": "enum Suit",
              "name": "suit",
              "type": "uint8"
            },
            {
              "internalType": "enum Value",
              "name": "value",
              "type": "uint8"
            }
          ],
          "indexed": false,
          "internalType": "struct Card[]",
          "name": "hand",
          "type": "tuple[]"
        }
      ],
      "name": "CardsDealt",
      "type": "event"
    },
    {
      "anonymous": false,
      "inputs": [
        {
          "components": [
            {
              "internalType": "enum Suit",
              "name": "suit",
              "type": "uint8"
            },
            {
              "internalType": "enum Value",
              "name": "value",
              "type": "uint8"
            }
          ],
          "indexed": false,
          "internalType": "struct Card[]",
          "name": "communityCards",
          "type": "tuple[]"
        }
      ],
      "name": "CommunityCardsDealt",
      "type": "event"
    },
    {
      "anonymous": false,
      "inputs": [],
      "name": "DeckReset",
      "type": "event"
    },
    {
      "anonymous": false,
      "inputs": [],
      "name": "DeckShuffled",
      "type": "event"
    },
    {
      "anonymous": false,
      "inputs": [],
      "name": "GameEnded",
      "type": "event"
    },
    {
      "anonymous": false,
      "inputs": [
        {
          "indexed": false,
          "internalType": "uint256",
          "name": "roomId",
          "type": "uint256"
        }
      ],
      "name": "GameStarted",
      "type": "event"
    },
    {
      "anonymous": false,
      "inputs": [
        {
          "indexed": false,
          "internalType": "enum GameState",
          "name": "newState",
          "type": "uint8"
        }
      ],
      "name": "GameStateChanged",
      "type": "event"
    },
    {
      "anonymous": false,
      "inputs": [
        {
          "indexed": true,
          "internalType": "address",
          "name": "previousOwner",
          "type": "address"
        },
        {
          "indexed": true,
          "internalType": "address",
          "name": "newOwner",
          "type": "address"
        }
      ],
      "name": "OwnershipTransferred",
      "type": "event"
    },
    {
      "anonymous": false,
      "inputs": [
        {
          "indexed": false,
          "internalType": "address",
          "name": "player",
          "type": "address"
        },
        {
          "indexed": false,
          "internalType": "enum PlayerAction",
          "name": "action",
          "type": "uint8"
        },
        {
          "indexed": false,
          "internalType": "uint256",
          "name": "amount",
          "type": "uint256"
        }
      ],
      "name": "PlayerActionTaken",
      "type": "event"
    },
    {
      "anonymous": false,
      "inputs": [
        {
          "indexed": false,
          "internalType": "address",
          "name": "player",
          "type": "address"
        }
      ],
      "name": "PlayerJoined",
      "type": "event"
    },
    {
      "anonymous": false,
      "inputs": [
        {
          "indexed": false,
          "internalType": "address",
          "name": "player",
          "type": "address"
        }
      ],
      "name": "PlayerLeft",
      "type": "event"
    },
    {
      "anonymous": false,
      "inputs": [
        {
          "indexed": false,
          "internalType": "uint256",
          "name": "potIndex",
          "type": "uint256"
        },
        {
          "indexed": false,
          "internalType": "uint256",
          "name": "amount",
          "type": "uint256"
        },
        {
          "indexed": false,
          "internalType": "address[]",
          "name": "eligiblePlayers",
          "type": "address[]"
        }
      ],
      "name": "PotCreated",
      "type": "event"
    },
    {
      "anonymous": false,
      "inputs": [
        {
          "indexed": false,
          "internalType": "uint256",
          "name": "potIndex",
          "type": "uint256"
        },
        {
          "indexed": false,
          "internalType": "uint256",
          "name": "amount",
          "type": "uint256"
        },
        {
          "indexed": false,
          "internalType": "address[]",
          "name": "winners",
          "type": "address[]"
        }
      ],
      "name": "PotDistributed",
      "type": "event"
    },
    {
      "anonymous": false,
      "inputs": [],
      "name": "RoundEnded",
      "type": "event"
    },
    {
      "inputs": [],
      "name": "cardManagement",
      "outputs": [
        {
          "internalType": "contract CardManagement",
          "name": "",
          "type": "address"
        }
      ],
      "stateMutability": "view",
      "type": "function"
    },
    {
      "inputs": [
        {
          "internalType": "uint256",
          "name": "",
          "type": "uint256"
        }
      ],
      "name": "communityCards",
      "outputs": [
        {
          "internalType": "enum Suit",
          "name": "suit",
          "type": "uint8"
        },
        {
          "internalType": "enum Value",
          "name": "value",
          "type": "uint8"
        }
      ],
      "stateMutability": "view",
      "type": "function"
    },
    {
      "inputs": [],
      "name": "currentBet",
      "outputs": [
        {
          "internalType": "uint256",
          "name": "",
          "type": "uint256"
        }
      ],
      "stateMutability": "view",
      "type": "function"
    },
    {
      "inputs": [],
      "name": "currentPlayerIndex",
      "outputs": [
        {
          "internalType": "uint256",
          "name": "",
          "type": "uint256"
        }
      ],
      "stateMutability": "view",
      "type": "function"
    },
    {
      "inputs": [],
      "name": "dealerIndex",
      "outputs": [
        {
          "internalType": "uint256",
          "name": "",
          "type": "uint256"
        }
      ],
      "stateMutability": "view",
      "type": "function"
    },
    {
      "inputs": [
        {
          "internalType": "uint256",
          "name": "",
          "type": "uint256"
        }
      ],
      "name": "deck",
      "outputs": [
        {
          "internalType": "enum Suit",
          "name": "suit",
          "type": "uint8"
        },
        {
          "internalType": "enum Value",
          "name": "value",
          "type": "uint8"
        }
      ],
      "stateMutability": "view",
      "type": "function"
    },
    {
      "inputs": [],
      "name": "gameState",
      "outputs": [
        {
          "internalType": "enum GameState",
          "name": "",
          "type": "uint8"
        }
      ],
      "stateMutability": "view",
      "type": "function"
    },
    {
      "inputs": [],
      "name": "initializeDeck",
      "outputs": [],
      "stateMutability": "nonpayable",
      "type": "function"
    },
    {
      "inputs": [],
      "name": "minimumBet",
      "outputs": [
        {
          "internalType": "uint256",
          "name": "",
          "type": "uint256"
        }
      ],
      "stateMutability": "view",
      "type": "function"
    },
    {
      "inputs": [],
      "name": "owner",
      "outputs": [
        {
          "internalType": "address",
          "name": "",
          "type": "address"
        }
      ],
      "stateMutability": "view",
      "type": "function"
    },
    {
      "inputs": [
        {
          "internalType": "enum PlayerAction",
          "name": "action",
          "type": "uint8"
        },
        {
          "internalType": "uint256",
          "name": "amount",
          "type": "uint256"
        }
      ],
      "name": "playerAction",
      "outputs": [],
      "stateMutability": "nonpayable",
      "type": "function"
    },
    {
      "inputs": [
        {
          "internalType": "address",
          "name": "",
          "type": "address"
        },
        {
          "internalType": "uint256",
          "name": "",
          "type": "uint256"
        }
      ],
      "name": "playerHands",
      "outputs": [
        {
          "internalType": "enum Suit",
          "name": "suit",
          "type": "uint8"
        },
        {
          "internalType": "enum Value",
          "name": "value",
          "type": "uint8"
        }
      ],
      "stateMutability": "view",
      "type": "function"
    },
    {
      "inputs": [
        {
          "internalType": "address",
          "name": "",
          "type": "address"
        }
      ],
      "name": "players",
      "outputs": [
        {
          "internalType": "address",
          "name": "addr",
          "type": "address"
        },
        {
          "internalType": "uint256",
          "name": "balance",
          "type": "uint256"
        },
        {
          "internalType": "uint256",
          "name": "currentBet",
          "type": "uint256"
        },
        {
          "internalType": "enum PlayerAction",
          "name": "action",
          "type": "uint8"
        },
        {
          "internalType": "bool",
          "name": "isActive",
          "type": "bool"
        },
        {
          "internalType": "bool",
          "name": "hasActed",
          "type": "bool"
        }
      ],
      "stateMutability": "view",
      "type": "function"
    },
    {
      "inputs": [
        {
          "internalType": "uint256",
          "name": "",
          "type": "uint256"
        }
      ],
      "name": "playersList",
      "outputs": [
        {
          "internalType": "address",
          "name": "",
          "type": "address"
        }
      ],
      "stateMutability": "view",
      "type": "function"
    },
    {
      "inputs": [
        {
          "internalType": "uint256",
          "name": "",
          "type": "uint256"
        }
      ],
      "name": "pots",
      "outputs": [
        {
          "internalType": "uint256",
          "name": "amount",
          "type": "uint256"
        }
      ],
      "stateMutability": "view",
      "type": "function"
    },
    {
      "inputs": [],
      "name": "randomResult",
      "outputs": [
        {
          "internalType": "uint256",
          "name": "",
          "type": "uint256"
        }
      ],
      "stateMutability": "view",
      "type": "function"
    },
    {
      "inputs": [
        {
          "internalType": "bytes32",
          "name": "requestId",
          "type": "bytes32"
        },
        {
          "internalType": "uint256",
          "name": "randomness",
          "type": "uint256"
        }
      ],
      "name": "rawFulfillRandomness",
      "outputs": [],
      "stateMutability": "nonpayable",
      "type": "function"
    },
    {
      "inputs": [],
      "name": "renounceOwnership",
      "outputs": [],
      "stateMutability": "nonpayable",
      "type": "function"
    },
    {
      "inputs": [],
      "name": "resetDeck",
      "outputs": [],
      "stateMutability": "nonpayable",
      "type": "function"
    },
    {
      "inputs": [],
      "name": "resetGame",
      "outputs": [],
      "stateMutability": "nonpayable",
      "type": "function"
    },
    {
      "inputs": [],
      "name": "roomId",
      "outputs": [
        {
          "internalType": "uint256",
          "name": "",
          "type": "uint256"
        }
      ],
      "stateMutability": "view",
      "type": "function"
    },
    {
      "inputs": [],
      "name": "roomManagement",
      "outputs": [
        {
          "internalType": "contract RoomManagement",
          "name": "",
          "type": "address"
        }
      ],
      "stateMutability": "view",
      "type": "function"
    },
    {
      "inputs": [
        {
          "internalType": "address",
          "name": "newOwner",
          "type": "address"
        }
      ],
      "name": "transferOwnership",
      "outputs": [],
      "stateMutability": "nonpayable",
      "type": "function"
    },
    {
      "inputs": [],
      "name": "userManagement",
      "outputs": [
        {
          "internalType": "contract UserManagement",
          "name": "",
          "type": "address"
        }
      ],
      "stateMutability": "view",
      "type": "function"
    }
  ],
  "bytecode": "0x60c06040523480156200001157600080fd5b50604051620029f3380380620029f3833981016040819052620000349162000123565b83836200004133620000b6565b600180556001600160a01b0391821660a0528116608052601199909955600e8054988a166001600160a01b0319998a16179055600f8054978a169789169790971790965560108054959098169490961693909317909555600455506003805460ff1916905560129190915560135550620001ba565b600080546001600160a01b038381166001600160a01b0319831681178455604051919092169283917f8be0079c531659141344cd1fd0a4f28419497f9722a3daafe3b4186f6b6457e09190a35050565b80516001600160a01b03811681146200011e57600080fd5b919050565b60008060008060008060008060006101208a8c0312156200014357600080fd5b895198506200015560208b0162000106565b97506200016560408b0162000106565b96506200017560608b0162000106565b955060808a015194506200018c60a08b0162000106565b93506200019c60c08b0162000106565b925060e08a015191506101008a015190509295985092959850929598565b60805160a051612805620001ee600039600081816109ef01526120020152600081816116830152611fd301526128056000f3fe608060405234801561001057600080fd5b50600436106101985760003560e01c8063bb472219116100e3578063e2eb41ff1161008c578063f2fde38b11610066578063f2fde38b1461036c578063f954d0d91461037f578063fb9bdab41461038857600080fd5b8063e2eb41ff146102ea578063ec1b1a4f14610351578063eff02a071461035957600080fd5b8063d1f9c24d116100bd578063d1f9c24d146102b4578063d504cb65146102ce578063e2724ddf146102d757600080fd5b8063bb47221914610290578063c38a8afd14610298578063c3c3df4f146102a157600080fd5b80638b0f23491161014557806397c77f101161011f57806397c77f10146102615780639d80e23214610274578063b69963981461027d57600080fd5b80638b0f23491461022a5780638da5cb5b1461023d57806394985ddd1461024e57600080fd5b8063715018a611610176578063715018a6146102055780637243087a1461020f5780637319b43e1461021757600080fd5b806342619f661461019d57806365b1dafa146101b95780636a767f50146101da575b600080fd5b6101a660145481565b6040519081526020015b60405180910390f35b6101cc6101c736600461234f565b610391565b6040516101b09291906123a2565b6010546101ed906001600160a01b031681565b6040516001600160a01b0390911681526020016101b0565b61020d6103be565b005b61020d6103d2565b6101ed61022536600461234f565b610525565b61020d6102383660046123c4565b61054f565b6000546001600160a01b03166101ed565b61020d61025c3660046123f4565b6109e4565b6101cc61026f366004612432565b610a6a565b6101a660065481565b600e546101ed906001600160a01b031681565b61020d610aa5565b6101a660045481565b6101a66102af36600461234f565b610ca9565b6003546102c19060ff1681565b6040516101b0919061244e565b6101a660055481565b600f546101ed906001600160a01b031681565b61033f6102f8366004612468565b60096020526000908152604090208054600182015460028301546003909301546001600160a01b0390921692909160ff808216916101008104821691620100009091041686565b6040516101b096959493929190612493565b61020d610ccf565b6101cc61036736600461234f565b610e00565b61020d61037a366004612468565b610e10565b6101a660115481565b6101a660075481565b600c81815481106103a157600080fd5b60009182526020909120015460ff80821692506101009091041682565b6103c6610e89565b6103d06000610ee3565b565b6103da610e89565b6103e6600c60006122a1565b60005b60048160ff1610156104f15760005b600d8160ff1610156104de57600c60405180604001604052808460ff16600381111561042657610426612368565b600381111561043757610437612368565b81526020018360ff16600c81111561045157610451612368565b600c81111561046257610462612368565b90528154600181810184556000938452602090932082519101805492939092839160ff199091169083600381111561049c5761049c612368565b021790555060208201518154829061ff00191661010083600c8111156104c4576104c4612368565b0217905550505080806104d6906124ed565b9150506103f8565b50806104e9816124ed565b9150506103e9565b506104fa610f40565b6040517fe29aa2d5682a605d34266276cffe320b927125d4d7c21d9f227bcdf2918d646690600090a1565b6008818154811061053557600080fd5b6000918252602090912001546001600160a01b0316905081565b336001600160a01b031660086007548154811061056e5761056e61250c565b6000918252602090912001546001600160a01b0316146105d55760405162461bcd60e51b815260206004820152601260248201527f49742773206e6f7420796f7572207475726e000000000000000000000000000060448201526064015b60405180910390fd5b60018060035460ff1660068111156105ef576105ef612368565b146106475760405162461bcd60e51b815260206004820152602260248201527f496e76616c69642067616d6520737461746520666f722074686973206163746960448201526137b760f11b60648201526084016105cc565b6004548210156106995760405162461bcd60e51b815260206004820152601860248201527f42657420616d6f756e742062656c6f77206d696e696d756d000000000000000060448201526064016105cc565b33600090815260096020526040902060018460078111156106bc576106bc612368565b036106e55760038101805461ff0019811682556001919061ffff191682805b021790555061095c565b60028460078111156106f9576106f9612368565b03610714576003810180546002919060ff19166001836106db565b600384600781111561072857610728612368565b036107ce57600081600201546005546107419190612522565b905080826001015410156107975760405162461bcd60e51b815260206004820152601c60248201527f496e73756666696369656e742062616c616e636520746f2063616c6c0000000060448201526064016105cc565b808260010160008282546107ab9190612522565b90915550506005546002830155506003808201805460ff1916909117905561095c565b60048460078111156107e2576107e2612368565b14806107ff575060058460078111156107fd576107fd612368565b145b156108d55782816001015410156108625760405162461bcd60e51b815260206004820152602160248201527f496e73756666696369656e742062616c616e636520746f206265742f726169736044820152606560f81b60648201526084016105cc565b600584600781111561087657610876612368565b0361089357826005600082825461088d9190612535565b90915550505b828160010160008282546108a79190612522565b9091555050600554600282015560038101805485919060ff191660018360078111156106db576106db612368565b60068460078111156108e9576108e9612368565b03610914576001808201805460028401556000905560038201805460069260ff1990911690836106db565b60405162461bcd60e51b815260206004820152600e60248201527f496e76616c696420616374696f6e00000000000000000000000000000000000060448201526064016105cc565b60038101805462ff0000191662010000179055600854600754610980906001612535565b61098a919061255e565b6007556040517f56083222ef34feb890621f830e4c89f4f2dcd04c5fe5dff08668ab75b314f561906109c190339087908790612572565b60405180910390a16109d161110a565b156109de576109de6111d9565b50505050565b336001600160a01b037f00000000000000000000000000000000000000000000000000000000000000001614610a5c5760405162461bcd60e51b815260206004820152601f60248201527f4f6e6c7920565246436f6f7264696e61746f722063616e2066756c66696c6c0060448201526064016105cc565b610a668282611353565b5050565b600a6020528160005260406000208181548110610a8657600080fd5b60009182526020909120015460ff808216935061010090910416905082565b610aad610e89565b60068060035460ff166006811115610ac757610ac7612368565b14610b1f5760405162461bcd60e51b815260206004820152602260248201527f496e76616c69642067616d6520737461746520666f722074686973206163746960448201526137b760f11b60648201526084016105cc565b60005b600854811015610b8f57600060088281548110610b4157610b4161250c565b6000918252602080832091909101546001600160a01b0316825260099052604081206002810191909155600301805462ffffff19166101001790555080610b878161259d565b915050610b22565b50610b9c600d60006122bf565b610bad600d80546001018155600052565b600854600654610bbe906001612535565b610bc8919061255e565b600681905560085490610bdc906001612535565b610be6919061255e565b600755610bf16103d2565b610bf9610ccf565b6003805460ff191660011790556008805460408051602080840282018101909252828152610c689390929091830182828015610c5e57602002820191906000526020600020905b81546001600160a01b03168152600190910190602001808311610c40575b5050505050611360565b6003546040517ea8b06dd72552dea96e97c9a96acf39a1908ada44765cefe367620485b2c7e191610c9e9160ff9091169061244e565b60405180910390a150565b600d8181548110610cb957600080fd5b6000918252602090912060029091020154905081565b610cd7610e89565b610ce3600c60006122a1565b60005b60048160ff161015610dee5760005b600d8160ff161015610ddb57600c60405180604001604052808460ff166003811115610d2357610d23612368565b6003811115610d3457610d34612368565b81526020018360ff16600c811115610d4e57610d4e612368565b600c811115610d5f57610d5f612368565b90528154600181810184556000938452602090932082519101805492939092839160ff1990911690836003811115610d9957610d99612368565b021790555060208201518154829061ff00191661010083600c811115610dc157610dc1612368565b021790555050508080610dd3906124ed565b915050610cf5565b5080610de6816124ed565b915050610ce6565b50610df761165f565b506103d0610f40565b600b81815481106103a157600080fd5b610e18610e89565b6001600160a01b038116610e7d5760405162461bcd60e51b815260206004820152602660248201527f4f776e61626c653a206e6577206f776e657220697320746865207a65726f206160448201526564647265737360d01b60648201526084016105cc565b610e8681610ee3565b50565b6000546001600160a01b031633146103d05760405162461bcd60e51b815260206004820181905260248201527f4f776e61626c653a2063616c6c6572206973206e6f7420746865206f776e657260448201526064016105cc565b600080546001600160a01b0383811673ffffffffffffffffffffffffffffffffffffffff19831681178455604051919092169283917f8be0079c531659141344cd1fd0a4f28419497f9722a3daafe3b4186f6b6457e09190a35050565b600c5460005b81811015610a6657600082601454610f5e919061255e565b90506000600c8381548110610f7557610f7561250c565b600091825260209091206040805180820190915291018054829060ff166003811115610fa357610fa3612368565b6003811115610fb457610fb4612368565b81528154602090910190610100900460ff16600c811115610fd757610fd7612368565b600c811115610fe857610fe8612368565b815250509050600c82815481106110015761100161250c565b90600052602060002001600c848154811061101e5761101e61250c565b60009182526020909120825491018054909160ff1690829060ff1916600183600381111561104e5761104e612368565b02179055508154815460ff610100928390041691839161ff0019169083600c81111561107c5761107c612368565b021790555090505080600c83815481106110985761109861250c565b60009182526020909120825191018054909190829060ff191660018360038111156110c5576110c5612368565b021790555060208201518154829061ff00191661010083600c8111156110ed576110ed612368565b0217905550905050505080806111029061259d565b915050610f46565b6000805b6008548110156111d157600960006008838154811061112f5761112f61250c565b60009182526020808320909101546001600160a01b0316835282019290925260400190206003015460ff6101009091041680156111b25750600960006008838154811061117e5761117e61250c565b60009182526020808320909101546001600160a01b0316835282019290925260400190206003015460ff6201000090910416155b156111bf57600091505090565b806111c98161259d565b91505061110e565b506001905090565b600160035460ff1660068111156111f2576111f2612368565b03611212576003805460ff1916600217815561120d9061174f565b61130b565b600260035460ff16600681111561122b5761122b612368565b0361124d5760038054819060ff19166001825b021790555061120d600161174f565b6003805460ff16600681111561126557611265612368565b0361127e57600380546004919060ff191660018361123e565b600460035460ff16600681111561129757611297612368565b036112c3576003805460ff191660051790556112b16118c7565b6003805460ff1916600617905561130b565b60405162461bcd60e51b815260206004820152601d60248201527f496e76616c69642067616d65207374617465207472616e736974696f6e00000060448201526064016105cc565b611313611f53565b6003546040517ea8b06dd72552dea96e97c9a96acf39a1908ada44765cefe367620485b2c7e1916113499160ff9091169061244e565b60405180910390a1565b6014819055610a66610f40565b611368610e89565b80516113759060026125b6565b600c5410156113c65760405162461bcd60e51b815260206004820152601860248201527f4e6f7420656e6f75676820636172647320696e206465636b000000000000000060448201526064016105cc565b60005b8151811015610a66576000600a60008484815181106113ea576113ea61250c565b60200260200101516001600160a01b03166001600160a01b03168152602001908152602001600020905080600c6001600c805490506114299190612522565b815481106114395761143961250c565b60009182526020808320845460018181018755958552919093209290910180549290910180549193909260ff1691839160ff199091169083600381111561148257611482612368565b02179055508154815460ff610100928390041691839161ff0019169083600c8111156114b0576114b0612368565b021790555050600c80548392506114c990600290612522565b815481106114d9576114d961250c565b60009182526020808320845460018181018755958552919093209290910180549290910180549193909260ff1691839160ff199091169083600381111561152257611522612368565b02179055508154815460ff610100928390041691839161ff0019169083600c81111561155057611550612368565b02179055505050600c805480611568576115686125cd565b6000828152602090208101600019908101805461ffff19169055019055600c805480611596576115966125cd565b6000828152602090208101600019908101805461ffff1916905501905582518390839081106115c7576115c761250c565b60200260200101516001600160a01b03167f97ccc4cc5c5d683e20928e10e44d4a6ccf05028eed0ba1a64ce2438d4b6eb275600a600086868151811061160f5761160f61250c565b60200260200101516001600160a01b03166001600160a01b0316815260200190815260200160002060405161164491906125e3565b60405180910390a250806116578161259d565b9150506113c9565b6013546040516370a0823160e01b8152306004820152600091906001600160a01b037f000000000000000000000000000000000000000000000000000000000000000016906370a0823190602401602060405180830381865afa1580156116ca573d6000803e3d6000fd5b505050506040513d601f19601f820116820180604052508101906116ee919061264f565b101561173c5760405162461bcd60e51b815260206004820152601660248201527f4e6f7420656e6f756768204c494e4b20746f6b656e730000000000000000000060448201526064016105cc565b61174a601254601354611fcf565b905090565b611757610e89565b600c548111156117a95760405162461bcd60e51b815260206004820152601860248201527f4e6f7420656e6f75676820636172647320696e206465636b000000000000000060448201526064016105cc565b60005b8181101561189657600c8054600b91906117c890600190612522565b815481106117d8576117d861250c565b60009182526020808320845460018181018755958552919093209290910180549290910180549193909260ff1691839160ff199091169083600381111561182157611821612368565b02179055508154815460ff610100928390041691839161ff0019169083600c81111561184f5761184f612368565b02179055505050600c805480611867576118676125cd565b6000828152602090208101600019908101805461ffff191690550190558061188e8161259d565b9150506117ac565b507f58b3a7cda5ac80d3fe32c93f8d10917ab838435ef550ca151f6b6106227f3825600b604051610c9e91906125e3565b60085460009067ffffffffffffffff8111156118e5576118e5612668565b60405190808252806020026020018201604052801561190e578160200160208202803683370190505b5060085490915060009067ffffffffffffffff81111561193057611930612668565b604051908082528060200260200182016040528015611959578160200160208202803683370190505b5090506000805b600854811015611d035760006008828154811061197f5761197f61250c565b60009182526020808320909101546001600160a01b0316808352600990915260409091206003015490915060ff6101009091041615611cf0576001600160a01b0381166000908152600a6020908152604080832080548251818502810185019093528083529192909190849084015b82821015611a7c57600084815260209020604080518082019091529083018054829060ff166003811115611a2457611a24612368565b6003811115611a3557611a35612368565b81528154602090910190610100900460ff16600c811115611a5857611a58612368565b600c811115611a6957611a69612368565b81525050815260200190600101906119ee565b5050505090506000600b805490508251611a969190612535565b67ffffffffffffffff811115611aae57611aae612668565b604051908082528060200260200182016040528015611af357816020015b6040805180820190915260008082526020820152815260200190600190039081611acc5790505b50905060005b8251811015611b4c57828181518110611b1457611b1461250c565b6020026020010151828281518110611b2e57611b2e61250c565b60200260200101819052508080611b449061259d565b915050611af9565b5060005b600b54811015611c2057600b8181548110611b6d57611b6d61250c565b600091825260209091206040805180820190915291018054829060ff166003811115611b9b57611b9b612368565b6003811115611bac57611bac612368565b81528154602090910190610100900460ff16600c811115611bcf57611bcf612368565b600c811115611be057611be0612368565b8152505082828551611bf29190612535565b81518110611c0257611c0261250c565b60200260200101819052508080611c189061259d565b915050611b50565b50600e54604051630567e8e160e11b81526000916001600160a01b031690630acfd1c290611c5290859060040161267e565b602060405180830381865afa158015611c6f573d6000803e3d6000fd5b505050506040513d601f19601f82011682018060405250810190611c93919061264f565b905080878781518110611ca857611ca861250c565b60200260200101818152505083888781518110611cc757611cc761250c565b6001600160a01b039092166020928302919091019091015285611ce98161259d565b9650505050505b5080611cfb8161259d565b915050611960565b506000808267ffffffffffffffff811115611d2057611d20612668565b604051908082528060200260200182016040528015611d49578160200160208202803683370190505b5090506000805b84811015611e6f5783868281518110611d6b57611d6b61250c565b60200260200101511115611deb57858181518110611d8b57611d8b61250c565b6020026020010151935060019150868181518110611dab57611dab61250c565b602002602001015183600081518110611dc657611dc661250c565b60200260200101906001600160a01b031690816001600160a01b031681525050611e5d565b83868281518110611dfe57611dfe61250c565b602002602001015103611e5d57868181518110611e1d57611e1d61250c565b6020026020010151838381518110611e3757611e3761250c565b6001600160a01b039092166020928302919091019091015281611e598161259d565b9250505b80611e678161259d565b915050611d50565b5060008167ffffffffffffffff811115611e8b57611e8b612668565b604051908082528060200260200182016040528015611eb4578160200160208202803683370190505b50905060005b82811015611f1857838181518110611ed457611ed461250c565b6020026020010151828281518110611eee57611eee61250c565b6001600160a01b039092166020928302919091019091015280611f108161259d565b915050611eba565b50611f21612155565b6040517f1084d47e99647565312e58bba004b0fc3088c683fa22f3925f1cf5fb0955402990600090a150505050505050565b600060058190555b600854811015610e865760006009600060088481548110611f7e57611f7e61250c565b60009182526020808320909101546001600160a01b0316835282019290925260400190206003018054911515620100000262ff00001990921691909117905580611fc78161259d565b915050611f5b565b60007f00000000000000000000000000000000000000000000000000000000000000006001600160a01b0316634000aea07f00000000000000000000000000000000000000000000000000000000000000008486600060405160200161203f929190918252602082015260400190565b6040516020818303038152906040526040518463ffffffff1660e01b815260040161206c939291906126d0565b6020604051808303816000875af115801561208b573d6000803e3d6000fd5b505050506040513d601f19601f820116820180604052508101906120af9190612736565b50600083815260026020818152604080842054815180840189905280830186905230606082015260808082018390528351808303909101815260a09091019092528151918301919091209387905291905261210b906001612535565b60008581526002602052604090205561214b8482604080516020808201949094528082019290925280518083038201815260609092019052805191012090565b9150505b92915050565b60005b600d54811015610e86576000600d82815481106121775761217761250c565b600091825260208220600160029092020190810154815491935061219a91612758565b905060005b600183015481101561224b5760008360010182815481106121c2576121c261250c565b60009182526020909120015460105460405163e0b1cccb60e01b81526001600160a01b039283166004820181905260248201879052935091169063e0b1cccb90604401600060405180830381600087803b15801561221f57600080fd5b505af1158015612233573d6000803e3d6000fd5b505050505080806122439061259d565b91505061219f565b5081546040517f1ac77b4d2f1a45ca290c7832e474472609168b2c57e4bae863761e79388557629161228491869190600187019061276c565b60405180910390a1505080806122999061259d565b915050612158565b5080546000825590600052602060002090810190610e8691906122e0565b5080546000825560020290600052602060002090810190610e8691906122fe565b5b808211156122fa57805461ffff191681556001016122e1565b5090565b808211156122fa5760008082556123186001830182612321565b506002016122fe565b5080546000825590600052602060002090810190610e8691905b808211156122fa576000815560010161233b565b60006020828403121561236157600080fd5b5035919050565b634e487b7160e01b600052602160045260246000fd5b6004811061238e5761238e612368565b9052565b600d811061238e5761238e612368565b604081016123b0828561237e565b6123bd6020830184612392565b9392505050565b600080604083850312156123d757600080fd5b8235600881106123e657600080fd5b946020939093013593505050565b6000806040838503121561240757600080fd5b50508035926020909101359150565b80356001600160a01b038116811461242d57600080fd5b919050565b6000806040838503121561244557600080fd5b6123e683612416565b602081016007831061246257612462612368565b91905290565b60006020828403121561247a57600080fd5b6123bd82612416565b6008811061238e5761238e612368565b6001600160a01b0387168152602081018690526040810185905260c081016124be6060830186612483565b921515608082015290151560a090910152949350505050565b634e487b7160e01b600052601160045260246000fd5b600060ff821660ff8103612503576125036124d7565b60010192915050565b634e487b7160e01b600052603260045260246000fd5b8181038181111561214f5761214f6124d7565b8082018082111561214f5761214f6124d7565b634e487b7160e01b600052601260045260246000fd5b60008261256d5761256d612548565b500690565b6001600160a01b03841681526060810161258f6020830185612483565b826040830152949350505050565b6000600182016125af576125af6124d7565b5060010190565b808202811582820484141761214f5761214f6124d7565b634e487b7160e01b600052603160045260246000fd5b60006020808301818452808554808352604092508286019150866000528360002060005b8281101561264257815460ff61261f8682841661237e565b612630888701828460081c16612392565b50509284019260019182019101612607565b5091979650505050505050565b60006020828403121561266157600080fd5b5051919050565b634e487b7160e01b600052604160045260246000fd5b602080825282518282018190526000919060409081850190868401855b828110156126425781516126b085825161237e565b8601516126bf85880182612392565b50928401929085019060010161269b565b6001600160a01b038416815260006020848184015260606040840152835180606085015260005b81811015612713578581018301518582016080015282016126f7565b506000608082860101526080601f19601f83011685010192505050949350505050565b60006020828403121561274857600080fd5b815180151581146123bd57600080fd5b60008261276757612767612548565b500490565b60006060820185835260208581850152606060408501528185548084526080860191508660005282600020935060005b818110156127c15784546001600160a01b03168352600194850194928401920161279c565b50909897505050505050505056fea26469706673582212208948f468862c9cfc1a59794d58904cbde5dea7ee0c697808fd54723f43ecac3c64736f6c63430008130033",
  "linkReferences": {},
  "deployedLinkReferences": {}
}