{
  "_format": "hh-sol-artifact-1",
  "contractName": "CardManagement",
  "sourceName": "contracts/Cards.sol",
  "abi": [
    {
      "anonymous": false,
      "inputs": [
        {
          "indexed": true,
          "internalType": "address",
          "name": "previousOwner",
          "type": "address"
        },
        {
          "indexed": true,
          "internalType": "address",
          "name": "newOwner",
          "type": "address"
        }
      ],
      "name": "OwnershipTransferred",
      "type": "event"
    },
    {
      "inputs": [
        {
          "components": [
            {
              "internalType": "enum Suit",
              "name": "suit",
              "type": "uint8"
            },
            {
              "internalType": "enum Value",
              "name": "value",
              "type": "uint8"
            }
          ],
          "internalType": "struct Card[]",
          "name": "hand",
          "type": "tuple[]"
        }
      ],
      "name": "evaluateHand",
      "outputs": [
        {
          "internalType": "uint256",
          "name": "",
          "type": "uint256"
        }
      ],
      "stateMutability": "pure",
      "type": "function"
    },
    {
      "inputs": [],
      "name": "owner",
      "outputs": [
        {
          "internalType": "address",
          "name": "",
          "type": "address"
        }
      ],
      "stateMutability": "view",
      "type": "function"
    },
    {
      "inputs": [],
      "name": "renounceOwnership",
      "outputs": [],
      "stateMutability": "nonpayable",
      "type": "function"
    },
    {
      "inputs": [
        {
          "internalType": "address",
          "name": "newOwner",
          "type": "address"
        }
      ],
      "name": "transferOwnership",
      "outputs": [],
      "stateMutability": "nonpayable",
      "type": "function"
    }
  ],
  "bytecode": "0x608060405234801561001057600080fd5b5061001a3361001f565b61006f565b600080546001600160a01b038381166001600160a01b0319831681178455604051919092169283917f8be0079c531659141344cd1fd0a4f28419497f9722a3daafe3b4186f6b6457e09190a35050565b6116b98061007e6000396000f3fe608060405234801561001057600080fd5b506004361061004c5760003560e01c80630acfd1c214610051578063715018a6146100775780638da5cb5b14610081578063f2fde38b1461009c575b600080fd5b61006461005f36600461149b565b6100af565b6040519081526020015b60405180910390f35b61007f6101b6565b005b6000546040516001600160a01b03909116815260200161006e565b61007f6100aa366004611585565b6101ca565b60006100ba82610248565b156100c85760095b92915050565b6100d18261039a565b156100f9576100df826103b5565b60085b6100ef90620f42406115e1565b6100c291906115f8565b610102826103e4565b1561011757610110826103fe565b60076100e2565b61012082610506565b156101355761012e8261060d565b60066100e2565b61013e82610764565b156101535761014c82610771565b60056100e2565b61015c8261099a565b156101715761016a82610afa565b60046100e2565b61017a82610d06565b1561018f5761018882610d13565b60036100e2565b61019882610e1b565b156101ad576101a682610e35565b60026100e2565b6100c2826110a4565b6101be61116b565b6101c860006111c5565b565b6101d261116b565b6001600160a01b03811661023c5760405162461bcd60e51b815260206004820152602660248201527f4f776e61626c653a206e6577206f776e657220697320746865207a65726f206160448201526564647265737360d01b60648201526084015b60405180910390fd5b610245816111c5565b50565b60006102526113ee565b61025a61140d565b60005b845181101561032e57818582815181106102795761027961160b565b6020026020010151600001516003811115610296576102966115b5565b60ff16600481106102a9576102a961160b565b602002018051906102b982611621565b60ff1660ff1681525050828582815181106102d6576102d661160b565b602002602001015160200151600c8111156102f3576102f36115b5565b60ff16600d81106103065761030661160b565b6020020180519061031682611621565b60ff169052508061032681611640565b91505061025d565b508051600560ff909116108015906103505750816009602002015160ff166001145b8015610366575081600a602002015160ff166001145b801561037c575081600b602002015160ff166001145b8015610392575081600c602002015160ff166001145b949350505050565b60006103a582610764565b80156100c257506100c28261099a565b6000806103c183610afa565b905060006103ce84610771565b90508082116103dd5780610392565b5092915050565b60006103f1826004611222565b60ff166001149050919050565b60006104086113ee565b60005b835181101561047957818482815181106104275761042761160b565b602002602001015160200151600c811115610444576104446115b5565b600d81106104545761045461160b565b6020020180519061046482611640565b9052508061047181611640565b91505061040b565b5060005b600d8110156104bd578181600d81106104985761049861160b565b60200201516004036104ab579392505050565b806104b581611640565b91505061047d565b5060405162461bcd60e51b815260206004820152601760248201527f4e6f20466f7572206f662061204b696e6420666f756e640000000000000000006044820152606401610233565b60006105106113ee565b60005b8351811015610587578184828151811061052f5761052f61160b565b602002602001015160200151600c81111561054c5761054c6115b5565b60ff16600d811061055f5761055f61160b565b6020020180519061056f82611621565b60ff169052508061057f81611640565b915050610513565b5060008060005b600d8110156105f9578381600d81106105a9576105a961160b565b602002015160ff166003036105c157600192506105e7565b8381600d81106105d3576105d361160b565b602002015160ff166002036105e757600191505b806105f181611640565b91505061058e565b508180156106045750805b95945050505050565b60006106176113ee565b60008060005b855181101561068b57838682815181106106395761063961160b565b602002602001015160200151600c811115610656576106566115b5565b600d81106106665761066661160b565b6020020180519061067682611640565b9052508061068381611640565b91505061061d565b5060005b600d8110156106f2578381600d81106106aa576106aa61160b565b60200201516003036106be578092506106e0565b8381600d81106106d0576106d061160b565b60200201516002036106e0578091505b806106ea81611640565b91505061068f565b50811580159061070157508015155b1561071c57806107128360646115e1565b61060491906115f8565b60405162461bcd60e51b815260206004820152601360248201527f4e6f2046756c6c20486f75736520666f756e64000000000000000000000000006044820152606401610233565b60006100c2826005611309565b600061077b6113ee565b61078361140d565b60005b845181101561084857818582815181106107a2576107a261160b565b60200260200101516000015160038111156107bf576107bf6115b5565b600481106107cf576107cf61160b565b602002018051906107df82611640565b81525050828582815181106107f6576107f661160b565b602002602001015160200151600c811115610813576108136115b5565b600d81106108235761082361160b565b6020020180519061083382611640565b9052508061084081611640565b915050610786565b506000805b600481101561095157600583826004811061086a5761086a61160b565b60200201511061093f5760005b865181101561093457818782815181106108935761089361160b565b60200260200101516000015160038111156108b0576108b06115b5565b03610922578681815181106108c7576108c761160b565b602002602001015160200151600c8111156108e4576108e46115b5565b83106108f0578261091f565b8681815181106109025761090261160b565b602002602001015160200151600c81111561091f5761091f6115b5565b92505b8061092c81611640565b915050610877565b509095945050505050565b8061094981611640565b91505061084d565b5060405162461bcd60e51b815260206004820152600e60248201527f4e6f20466c75736820666f756e640000000000000000000000000000000000006044820152606401610233565b60006109a46113ee565b60005b8351811015610a1b57818482815181106109c3576109c361160b565b602002602001015160200151600c8111156109e0576109e06115b5565b60ff16600d81106109f3576109f361160b565b60200201805190610a0382611621565b60ff1690525080610a1381611640565b9150506109a7565b506000805b600d8160ff161015610a90576000838260ff16600d8110610a4357610a4361160b565b602002015160ff161115610a795781610a5b81611621565b9250508160ff16600503610a7457506001949350505050565b610a7e565b600091505b80610a8881611621565b915050610a20565b5061018082015160ff1615801590610aab5750815160ff1615155b8015610abd5750602082015160ff1615155b8015610acf5750604082015160ff1615155b8015610ae15750606082015160ff1615155b15610af0575060019392505050565b5060009392505050565b6000610b046113ee565b60005b8351811015610b755781848281518110610b2357610b2361160b565b602002602001015160200151600c811115610b4057610b406115b5565b600d8110610b5057610b5061160b565b60200201805190610b6082611640565b90525080610b6d81611640565b915050610b07565b5060005b6009811015610c6e5760008282600d8110610b9657610b9661160b565b6020020151118015610bc85750600082610bb18360016115f8565b600d8110610bc157610bc161160b565b6020020151115b8015610bf45750600082610bdd8360026115f8565b600d8110610bed57610bed61160b565b6020020151115b8015610c205750600082610c098360036115f8565b600d8110610c1957610c1961160b565b6020020151115b8015610c4c5750600082610c358360046115f8565b600d8110610c4557610c4561160b565b6020020151115b15610c5c576103928160046115f8565b80610c6681611640565b915050610b79565b5061018081015115801590610c835750805115155b8015610c925750602081015115155b8015610ca15750604081015115155b8015610cb05750606081015115155b15610cbe5750600392915050565b60405162461bcd60e51b815260206004820152601160248201527f4e6f20537472616967687420666f756e640000000000000000000000000000006044820152606401610233565b60006103f1826003611222565b6000610d1d6113ee565b60005b8351811015610d8e5781848281518110610d3c57610d3c61160b565b602002602001015160200151600c811115610d5957610d596115b5565b600d8110610d6957610d6961160b565b60200201805190610d7982611640565b90525080610d8681611640565b915050610d20565b5060005b600d811015610dd2578181600d8110610dad57610dad61160b565b6020020151600303610dc0579392505050565b80610dca81611640565b915050610d92565b5060405162461bcd60e51b815260206004820152601860248201527f4e6f205468726565206f662061204b696e6420666f756e6400000000000000006044820152606401610233565b6000610e28826002611222565b60ff166002149050919050565b6000610e3f6113ee565b6000806000805b8651811015610eb45784878281518110610e6257610e6261160b565b602002602001015160200151600c811115610e7f57610e7f6115b5565b600d8110610e8f57610e8f61160b565b60200201805190610e9f82611640565b90525080610eac81611640565b915050610e46565b5060005b600d811015610f09578481600d8110610ed357610ed361160b565b6020020151600203610ef75783600003610eef57809350610ef7565b809250610f09565b80610f0181611640565b915050610eb8565b508215801590610f1857508115155b1561105c5781831015610f29579091905b60005b86518110156110255783878281518110610f4857610f4861160b565b602002602001015160200151600c811115610f6557610f656115b5565b14158015610fa1575082878281518110610f8157610f8161160b565b602002602001015160200151600c811115610f9e57610f9e6115b5565b14155b1561101357868181518110610fb857610fb861160b565b602002602001015160200151600c811115610fd557610fd56115b5565b8210610fe15781611010565b868181518110610ff357610ff361160b565b602002602001015160200151600c811115611010576110106115b5565b91505b8061101d81611640565b915050610f2c565b50806110328360646115e1565b61103e856127106115e1565b61104891906115f8565b61105291906115f8565b9695505050505050565b60405162461bcd60e51b815260206004820152601260248201527f4e6f2054776f20506169727320666f756e6400000000000000000000000000006044820152606401610233565b60006110ae6113ee565b60005b835181101561111f57818482815181106110cd576110cd61160b565b602002602001015160200151600c8111156110ea576110ea6115b5565b600d81106110fa576110fa61160b565b6020020180519061110a82611640565b9052508061111781611640565b9150506110b1565b506000600184516111309190611659565b90505b60008282600d81106111475761114761160b565b60200201511115611159579392505050565b806111638161166c565b915050611133565b6000546001600160a01b031633146101c85760405162461bcd60e51b815260206004820181905260248201527f4f776e61626c653a2063616c6c6572206973206e6f7420746865206f776e65726044820152606401610233565b600080546001600160a01b0383811673ffffffffffffffffffffffffffffffffffffffff19831681178455604051919092169283917f8be0079c531659141344cd1fd0a4f28419497f9722a3daafe3b4186f6b6457e09190a35050565b600061122c6113ee565b60005b84518160ff1610156112a95781858260ff16815181106112515761125161160b565b602002602001015160200151600c81111561126e5761126e6115b5565b60ff16600d81106112815761128161160b565b6020020180519061129182611621565b60ff16905250806112a181611621565b91505061122f565b506000805b600d8160ff161015611300578460ff16838260ff16600d81106112d3576112d361160b565b602002015160ff16036112ee57816112ea81611621565b9250505b806112f881611621565b9150506112ae565b50949350505050565b600061131361140d565b60005b84518160ff1610156113905781858260ff16815181106113385761133861160b565b6020026020010151600001516003811115611355576113556115b5565b60ff16600481106113685761136861160b565b6020020180519061137882611621565b60ff169052508061138881611621565b915050611316565b5060005b60048160ff1610156113e3578360ff16828260ff16600481106113b9576113b961160b565b602002015160ff16106113d1576001925050506100c2565b806113db81611621565b915050611394565b506000949350505050565b604051806101a00160405280600d906020820280368337509192915050565b60405180608001604052806004906020820280368337509192915050565b634e487b7160e01b600052604160045260246000fd5b6040805190810167ffffffffffffffff811182821017156114645761146461142b565b60405290565b604051601f8201601f1916810167ffffffffffffffff811182821017156114935761149361142b565b604052919050565b600060208083850312156114ae57600080fd5b823567ffffffffffffffff808211156114c657600080fd5b818501915085601f8301126114da57600080fd5b8135818111156114ec576114ec61142b565b6114fa848260051b0161146a565b818152848101925060069190911b83018401908782111561151a57600080fd5b928401925b8184101561157a57604084890312156115385760008081fd5b611540611441565b8435600481106115505760008081fd5b815284860135600d81106115645760008081fd5b818701528352604093909301929184019161151f565b979650505050505050565b60006020828403121561159757600080fd5b81356001600160a01b03811681146115ae57600080fd5b9392505050565b634e487b7160e01b600052602160045260246000fd5b634e487b7160e01b600052601160045260246000fd5b80820281158282048414176100c2576100c26115cb565b808201808211156100c2576100c26115cb565b634e487b7160e01b600052603260045260246000fd5b600060ff821660ff8103611637576116376115cb565b60010192915050565b600060018201611652576116526115cb565b5060010190565b818103818111156100c2576100c26115cb565b60008161167b5761167b6115cb565b50600019019056fea26469706673582212208e7a432628bf8d200f89f32beb20c9cfbd9531f99ba3101364485d8f1c58f85d64736f6c63430008130033",
  "linkReferences": {},
  "deployedLinkReferences": {}
}