{
  "_format": "hh-sol-artifact-1",
  "contractName": "GameManagement",
  "sourceName": "contracts/Games.sol",
  "abi": [
    {
      "inputs": [],
      "stateMutability": "nonpayable",
      "type": "constructor"
    },
    {
      "anonymous": false,
      "inputs": [
        {
          "indexed": true,
          "internalType": "uint256",
          "name": "gameId",
          "type": "uint256"
        },
        {
          "indexed": true,
          "internalType": "address",
          "name": "creator",
          "type": "address"
        },
        {
          "indexed": false,
          "internalType": "uint256",
          "name": "buyInAmount",
          "type": "uint256"
        },
        {
          "indexed": false,
          "internalType": "uint256",
          "name": "maxPlayers",
          "type": "uint256"
        }
      ],
      "name": "GameRoomCreated",
      "type": "event"
    },
    {
      "anonymous": false,
      "inputs": [
        {
          "indexed": true,
          "internalType": "uint256",
          "name": "gameId",
          "type": "uint256"
        },
        {
          "indexed": false,
          "internalType": "enum GameStatus",
          "name": "newStatus",
          "type": "uint8"
        }
      ],
      "name": "GameRoomStatusUpdated",
      "type": "event"
    },
    {
      "anonymous": false,
      "inputs": [
        {
          "indexed": true,
          "internalType": "address",
          "name": "previousOwner",
          "type": "address"
        },
        {
          "indexed": true,
          "internalType": "address",
          "name": "newOwner",
          "type": "address"
        }
      ],
      "name": "OwnershipTransferred",
      "type": "event"
    },
    {
      "anonymous": false,
      "inputs": [
        {
          "indexed": true,
          "internalType": "bytes32",
          "name": "role",
          "type": "bytes32"
        },
        {
          "indexed": true,
          "internalType": "bytes32",
          "name": "previousAdminRole",
          "type": "bytes32"
        },
        {
          "indexed": true,
          "internalType": "bytes32",
          "name": "newAdminRole",
          "type": "bytes32"
        }
      ],
      "name": "RoleAdminChanged",
      "type": "event"
    },
    {
      "anonymous": false,
      "inputs": [
        {
          "indexed": true,
          "internalType": "bytes32",
          "name": "role",
          "type": "bytes32"
        },
        {
          "indexed": true,
          "internalType": "address",
          "name": "account",
          "type": "address"
        },
        {
          "indexed": true,
          "internalType": "address",
          "name": "sender",
          "type": "address"
        }
      ],
      "name": "RoleGranted",
      "type": "event"
    },
    {
      "anonymous": false,
      "inputs": [
        {
          "indexed": true,
          "internalType": "bytes32",
          "name": "role",
          "type": "bytes32"
        },
        {
          "indexed": true,
          "internalType": "address",
          "name": "account",
          "type": "address"
        },
        {
          "indexed": true,
          "internalType": "address",
          "name": "sender",
          "type": "address"
        }
      ],
      "name": "RoleRevoked",
      "type": "event"
    },
    {
      "inputs": [],
      "name": "ADMIN_ROLE",
      "outputs": [
        {
          "internalType": "bytes32",
          "name": "",
          "type": "bytes32"
        }
      ],
      "stateMutability": "view",
      "type": "function"
    },
    {
      "inputs": [],
      "name": "DEFAULT_ADMIN_ROLE",
      "outputs": [
        {
          "internalType": "bytes32",
          "name": "",
          "type": "bytes32"
        }
      ],
      "stateMutability": "view",
      "type": "function"
    },
    {
      "inputs": [
        {
          "internalType": "uint256",
          "name": "_buyInAmount",
          "type": "uint256"
        },
        {
          "internalType": "uint256",
          "name": "_maxPlayers",
          "type": "uint256"
        }
      ],
      "name": "createGameRoom",
      "outputs": [
        {
          "internalType": "uint256",
          "name": "",
          "type": "uint256"
        }
      ],
      "stateMutability": "nonpayable",
      "type": "function"
    },
    {
      "inputs": [
        {
          "internalType": "uint256",
          "name": "",
          "type": "uint256"
        }
      ],
      "name": "gameRooms",
      "outputs": [
        {
          "internalType": "uint256",
          "name": "id",
          "type": "uint256"
        },
        {
          "internalType": "address",
          "name": "creator",
          "type": "address"
        },
        {
          "internalType": "uint256",
          "name": "buyInAmount",
          "type": "uint256"
        },
        {
          "internalType": "uint256",
          "name": "maxPlayers",
          "type": "uint256"
        },
        {
          "internalType": "uint256",
          "name": "createdAt",
          "type": "uint256"
        },
        {
          "internalType": "enum GameStatus",
          "name": "status",
          "type": "uint8"
        }
      ],
      "stateMutability": "view",
      "type": "function"
    },
    {
      "inputs": [
        {
          "internalType": "uint256",
          "name": "_gameID",
          "type": "uint256"
        }
      ],
      "name": "getBuyInAmount",
      "outputs": [
        {
          "internalType": "uint256",
          "name": "",
          "type": "uint256"
        }
      ],
      "stateMutability": "view",
      "type": "function"
    },
    {
      "inputs": [
        {
          "internalType": "uint256",
          "name": "_gameId",
          "type": "uint256"
        }
      ],
      "name": "getGameRoom",
      "outputs": [
        {
          "components": [
            {
              "internalType": "uint256",
              "name": "id",
              "type": "uint256"
            },
            {
              "internalType": "address",
              "name": "creator",
              "type": "address"
            },
            {
              "internalType": "uint256",
              "name": "buyInAmount",
              "type": "uint256"
            },
            {
              "internalType": "uint256",
              "name": "maxPlayers",
              "type": "uint256"
            },
            {
              "internalType": "uint256",
              "name": "createdAt",
              "type": "uint256"
            },
            {
              "internalType": "enum GameStatus",
              "name": "status",
              "type": "uint8"
            }
          ],
          "internalType": "struct GameRoom",
          "name": "",
          "type": "tuple"
        }
      ],
      "stateMutability": "view",
      "type": "function"
    },
    {
      "inputs": [
        {
          "internalType": "bytes32",
          "name": "role",
          "type": "bytes32"
        }
      ],
      "name": "getRoleAdmin",
      "outputs": [
        {
          "internalType": "bytes32",
          "name": "",
          "type": "bytes32"
        }
      ],
      "stateMutability": "view",
      "type": "function"
    },
    {
      "inputs": [
        {
          "internalType": "address",
          "name": "_user",
          "type": "address"
        }
      ],
      "name": "getUserGames",
      "outputs": [
        {
          "internalType": "uint256[]",
          "name": "",
          "type": "uint256[]"
        }
      ],
      "stateMutability": "view",
      "type": "function"
    },
    {
      "inputs": [
        {
          "internalType": "address",
          "name": "account",
          "type": "address"
        }
      ],
      "name": "grantAdminRole",
      "outputs": [],
      "stateMutability": "nonpayable",
      "type": "function"
    },
    {
      "inputs": [
        {
          "internalType": "bytes32",
          "name": "role",
          "type": "bytes32"
        },
        {
          "internalType": "address",
          "name": "account",
          "type": "address"
        }
      ],
      "name": "grantRole",
      "outputs": [],
      "stateMutability": "nonpayable",
      "type": "function"
    },
    {
      "inputs": [
        {
          "internalType": "bytes32",
          "name": "role",
          "type": "bytes32"
        },
        {
          "internalType": "address",
          "name": "account",
          "type": "address"
        }
      ],
      "name": "hasRole",
      "outputs": [
        {
          "internalType": "bool",
          "name": "",
          "type": "bool"
        }
      ],
      "stateMutability": "view",
      "type": "function"
    },
    {
      "inputs": [
        {
          "internalType": "uint256",
          "name": "_gameID",
          "type": "uint256"
        }
      ],
      "name": "maxPlayers",
      "outputs": [
        {
          "internalType": "uint256",
          "name": "",
          "type": "uint256"
        }
      ],
      "stateMutability": "view",
      "type": "function"
    },
    {
      "inputs": [],
      "name": "nextGameId",
      "outputs": [
        {
          "internalType": "uint256",
          "name": "",
          "type": "uint256"
        }
      ],
      "stateMutability": "view",
      "type": "function"
    },
    {
      "inputs": [],
      "name": "owner",
      "outputs": [
        {
          "internalType": "address",
          "name": "",
          "type": "address"
        }
      ],
      "stateMutability": "view",
      "type": "function"
    },
    {
      "inputs": [],
      "name": "renounceOwnership",
      "outputs": [],
      "stateMutability": "nonpayable",
      "type": "function"
    },
    {
      "inputs": [
        {
          "internalType": "bytes32",
          "name": "role",
          "type": "bytes32"
        },
        {
          "internalType": "address",
          "name": "account",
          "type": "address"
        }
      ],
      "name": "renounceRole",
      "outputs": [],
      "stateMutability": "nonpayable",
      "type": "function"
    },
    {
      "inputs": [
        {
          "internalType": "bytes32",
          "name": "role",
          "type": "bytes32"
        },
        {
          "internalType": "address",
          "name": "account",
          "type": "address"
        }
      ],
      "name": "revokeRole",
      "outputs": [],
      "stateMutability": "nonpayable",
      "type": "function"
    },
    {
      "inputs": [
        {
          "internalType": "bytes4",
          "name": "interfaceId",
          "type": "bytes4"
        }
      ],
      "name": "supportsInterface",
      "outputs": [
        {
          "internalType": "bool",
          "name": "",
          "type": "bool"
        }
      ],
      "stateMutability": "view",
      "type": "function"
    },
    {
      "inputs": [
        {
          "internalType": "address",
          "name": "newOwner",
          "type": "address"
        }
      ],
      "name": "transferOwnership",
      "outputs": [],
      "stateMutability": "nonpayable",
      "type": "function"
    },
    {
      "inputs": [
        {
          "internalType": "uint256",
          "name": "_gameId",
          "type": "uint256"
        },
        {
          "internalType": "enum GameStatus",
          "name": "_status",
          "type": "uint8"
        }
      ],
      "name": "updateGameStatus",
      "outputs": [],
      "stateMutability": "nonpayable",
      "type": "function"
    },
    {
      "inputs": [
        {
          "internalType": "address",
          "name": "",
          "type": "address"
        },
        {
          "internalType": "uint256",
          "name": "",
          "type": "uint256"
        }
      ],
      "name": "userGames",
      "outputs": [
        {
          "internalType": "uint256",
          "name": "",
          "type": "uint256"
        }
      ],
      "stateMutability": "view",
      "type": "function"
    }
  ],
  "bytecode": "0x608060405234801561001057600080fd5b5061001a33610049565b6100447fa49807205ce4d355092ef5a8a18f56e8913cf4a201fbe287825b095693c2177533610099565b61012e565b600080546001600160a01b038381166001600160a01b0319831681178455604051919092169283917f8be0079c531659141344cd1fd0a4f28419497f9722a3daafe3b4186f6b6457e09190a35050565b6100a382826100a7565b5050565b60008281526001602090815260408083206001600160a01b038516845290915290205460ff166100a35760008281526001602081815260408084206001600160a01b0386168086529252808420805460ff19169093179092559051339285917f2f8788117e7eff1d82e926ec794901d17c78024a50270940304540a733656f0d9190a45050565b6112198061013d6000396000f3fe608060405234801561001057600080fd5b50600436106101475760003560e01c806391d14854116100c8578063bfad6a291161008c578063f2fde38b11610066578063f2fde38b14610377578063f86b0d3f1461038a578063f9042dbf146103ad57600080fd5b8063bfad6a291461032d578063c634b78e14610351578063d547741f1461036457600080fd5b806391d14854146102b0578063a217fddf146102e9578063b135bbb0146102f1578063bc0167cd146102fa578063bcdafed11461030d57600080fd5b8063426c46411161010f578063426c4641146101ee578063715018a61461025357806375b238fc1461025b57806389aceef0146102825780638da5cb5b1461029557600080fd5b806301ffc9a71461014c578063120aace614610174578063248a9ca3146101945780632f2ff15d146101c657806336568abe146101db575b600080fd5b61015f61015a366004610e2c565b6103c0565b60405190151581526020015b60405180910390f35b610187610182366004610e72565b6103f7565b60405161016b9190610e8d565b6101b86101a2366004610ed1565b6000908152600160208190526040909120015490565b60405190815260200161016b565b6101d96101d4366004610eea565b610463565b005b6101d96101e9366004610eea565b61048e565b6102416101fc366004610ed1565b600360208190526000918252604090912080546001820154600283015493830154600484015460059094015492946001600160a01b0390921693919290919060ff1686565b60405161016b96959493929190610f4e565b6101d961051f565b6101b87fa49807205ce4d355092ef5a8a18f56e8913cf4a201fbe287825b095693c2177581565b6101d9610290366004610f92565b610533565b6000546040516001600160a01b03909116815260200161016b565b61015f6102be366004610eea565b60009182526001602090815260408084206001600160a01b0393909316845291905290205460ff1690565b6101b8600081565b6101b860025481565b6101b8610308366004610fc6565b61062a565b61032061031b366004610ed1565b61065b565b60405161016b9190610ff0565b6101b861033b366004610ed1565b6000908152600360208190526040909120015490565b6101d961035f366004610e72565b61074c565b6101d9610372366004610eea565b610781565b6101d9610385366004610e72565b6107a7565b6101b8610398366004610ed1565b60009081526003602052604090206002015490565b6101b86103bb36600461103f565b61081d565b60006001600160e01b03198216637965db0b60e01b14806103f157506301ffc9a760e01b6001600160e01b03198316145b92915050565b6001600160a01b03811660009081526004602090815260409182902080548351818402810184019094528084526060939283018282801561045757602002820191906000526020600020905b815481526020019060010190808311610443575b50505050509050919050565b6000828152600160208190526040909120015461047f816109db565b61048983836109e5565b505050565b6001600160a01b03811633146105115760405162461bcd60e51b815260206004820152602f60248201527f416363657373436f6e74726f6c3a2063616e206f6e6c792072656e6f756e636560448201527f20726f6c657320666f722073656c66000000000000000000000000000000000060648201526084015b60405180910390fd5b61051b8282610a6c565b5050565b610527610aef565b6105316000610b49565b565b7fa49807205ce4d355092ef5a8a18f56e8913cf4a201fbe287825b095693c2177561055d816109db565b60008381526003602052604090205483146105ba5760405162461bcd60e51b815260206004820152601860248201527f47616d6520726f6f6d20646f6573206e6f7420657869737400000000000000006044820152606401610508565b6000838152600360205260409020600501805483919060ff191660018360028111156105e8576105e8610f16565b0217905550827fea3828a28f34d001559e555aac09dab1944db93c54f23d96508190e2060f1d338360405161061d9190611061565b60405180910390a2505050565b6004602052816000526040600020818154811061064657600080fd5b90600052602060002001600091509150505481565b610663610ddd565b60008281526003602052604090205482146106c05760405162461bcd60e51b815260206004820152601860248201527f47616d6520726f6f6d20646f6573206e6f7420657869737400000000000000006044820152606401610508565b600082815260036020818152604092839020835160c0810185528154815260018201546001600160a01b03169281019290925260028082015494830194909452918201546060820152600482015460808201526005820154909260a084019160ff169081111561073257610732610f16565b600281111561074357610743610f16565b90525092915050565b610754610aef565b61077e7fa49807205ce4d355092ef5a8a18f56e8913cf4a201fbe287825b095693c2177582610463565b50565b6000828152600160208190526040909120015461079d816109db565b6104898383610a6c565b6107af610aef565b6001600160a01b0381166108145760405162461bcd60e51b815260206004820152602660248201527f4f776e61626c653a206e6577206f776e657220697320746865207a65726f206160448201526564647265737360d01b6064820152608401610508565b61077e81610b49565b60007fa49807205ce4d355092ef5a8a18f56e8913cf4a201fbe287825b095693c21775610849816109db565b600084116108a55760405162461bcd60e51b8152602060048201526024808201527f4275792d696e20616d6f756e74206d75737420626520677265617465722074686044820152630616e20360e41b6064820152608401610508565b600183116109065760405162461bcd60e51b815260206004820152602860248201527f4e756d626572206f6620706c6179657273206d7573742062652067726561746560448201526772207468616e203160c01b6064820152608401610508565b600280546000918261091783611085565b909155506000818152600360208181526040808420858155600180820180543373ffffffffffffffffffffffffffffffffffffffff199091168117909155600283018d90559482018b9055426004808401919091556005909201805460ff191690558486529083528185208054918201815585529382902090930184905582518981529081018890529293509183917f09afe5bc564712e407bc60fb25b67823aac72e5d89c18c26552024ab4b24bb9a910160405180910390a391505b5092915050565b61077e8133610ba6565b60008281526001602090815260408083206001600160a01b038516845290915290205460ff1661051b5760008281526001602081815260408084206001600160a01b0386168086529252808420805460ff19169093179092559051339285917f2f8788117e7eff1d82e926ec794901d17c78024a50270940304540a733656f0d9190a45050565b60008281526001602090815260408083206001600160a01b038516845290915290205460ff161561051b5760008281526001602090815260408083206001600160a01b0385168085529252808320805460ff1916905551339285917ff6391f5c32d9c69d2a47ea670b442974b53935d1edc7fd64eb21e047a839171b9190a45050565b6000546001600160a01b031633146105315760405162461bcd60e51b815260206004820181905260248201527f4f776e61626c653a2063616c6c6572206973206e6f7420746865206f776e65726044820152606401610508565b600080546001600160a01b0383811673ffffffffffffffffffffffffffffffffffffffff19831681178455604051919092169283917f8be0079c531659141344cd1fd0a4f28419497f9722a3daafe3b4186f6b6457e09190a35050565b60008281526001602090815260408083206001600160a01b038516845290915290205460ff1661051b57610bd981610c1b565b610be4836020610c2d565b604051602001610bf59291906110c2565b60408051601f198184030181529082905262461bcd60e51b825261050891600401611143565b60606103f16001600160a01b03831660145b60606000610c3c836002611176565b610c4790600261118d565b67ffffffffffffffff811115610c5f57610c5f6111a0565b6040519080825280601f01601f191660200182016040528015610c89576020820181803683370190505b509050600360fc1b81600081518110610ca457610ca46111b6565b60200101906001600160f81b031916908160001a905350600f60fb1b81600181518110610cd357610cd36111b6565b60200101906001600160f81b031916908160001a9053506000610cf7846002611176565b610d0290600161118d565b90505b6001811115610d87577f303132333435363738396162636465660000000000000000000000000000000085600f1660108110610d4357610d436111b6565b1a60f81b828281518110610d5957610d596111b6565b60200101906001600160f81b031916908160001a90535060049490941c93610d80816111cc565b9050610d05565b508315610dd65760405162461bcd60e51b815260206004820181905260248201527f537472696e67733a20686578206c656e67746820696e73756666696369656e746044820152606401610508565b9392505050565b6040518060c001604052806000815260200160006001600160a01b0316815260200160008152602001600081526020016000815260200160006002811115610e2757610e27610f16565b905290565b600060208284031215610e3e57600080fd5b81356001600160e01b031981168114610dd657600080fd5b80356001600160a01b0381168114610e6d57600080fd5b919050565b600060208284031215610e8457600080fd5b610dd682610e56565b6020808252825182820181905260009190848201906040850190845b81811015610ec557835183529284019291840191600101610ea9565b50909695505050505050565b600060208284031215610ee357600080fd5b5035919050565b60008060408385031215610efd57600080fd5b82359150610f0d60208401610e56565b90509250929050565b634e487b7160e01b600052602160045260246000fd5b60038110610f4a57634e487b7160e01b600052602160045260246000fd5b9052565b600060c0820190508782526001600160a01b0387166020830152856040830152846060830152836080830152610f8760a0830184610f2c565b979650505050505050565b60008060408385031215610fa557600080fd5b82359150602083013560038110610fbb57600080fd5b809150509250929050565b60008060408385031215610fd957600080fd5b610fe283610e56565b946020939093013593505050565b600060c082019050825182526001600160a01b03602084015116602083015260408301516040830152606083015160608301526080830151608083015260a08301516109d460a0840182610f2c565b6000806040838503121561105257600080fd5b50508035926020909101359150565b602081016103f18284610f2c565b634e487b7160e01b600052601160045260246000fd5b6000600182016110975761109761106f565b5060010190565b60005b838110156110b95781810151838201526020016110a1565b50506000910152565b7f416363657373436f6e74726f6c3a206163636f756e74200000000000000000008152600083516110fa81601785016020880161109e565b7f206973206d697373696e6720726f6c6520000000000000000000000000000000601791840191820152835161113781602884016020880161109e565b01602801949350505050565b602081526000825180602084015261116281604085016020870161109e565b601f01601f19169190910160400192915050565b80820281158282048414176103f1576103f161106f565b808201808211156103f1576103f161106f565b634e487b7160e01b600052604160045260246000fd5b634e487b7160e01b600052603260045260246000fd5b6000816111db576111db61106f565b50600019019056fea26469706673582212204026188e9417ad49365b1c001155556b7d341841324eefca66bbc2992626d15d64736f6c63430008130033",
  "linkReferences": {},
  "deployedLinkReferences": {}
}