{
  "_format": "hh-sol-artifact-1",
  "contractName": "RoomManagement",
  "sourceName": "contracts/Rooms.sol",
  "abi": [
    {
      "anonymous": false,
      "inputs": [
        {
          "indexed": true,
          "internalType": "address",
          "name": "previousOwner",
          "type": "address"
        },
        {
          "indexed": true,
          "internalType": "address",
          "name": "newOwner",
          "type": "address"
        }
      ],
      "name": "OwnershipTransferred",
      "type": "event"
    },
    {
      "anonymous": false,
      "inputs": [
        {
          "indexed": false,
          "internalType": "uint256",
          "name": "roomId",
          "type": "uint256"
        },
        {
          "indexed": false,
          "internalType": "address",
          "name": "player",
          "type": "address"
        },
        {
          "indexed": false,
          "internalType": "string",
          "name": "nickName",
          "type": "string"
        },
        {
          "indexed": false,
          "internalType": "uint256",
          "name": "chips",
          "type": "uint256"
        }
      ],
      "name": "PlayerAdded",
      "type": "event"
    },
    {
      "anonymous": false,
      "inputs": [
        {
          "indexed": false,
          "internalType": "uint256",
          "name": "roomId",
          "type": "uint256"
        },
        {
          "indexed": false,
          "internalType": "address",
          "name": "player",
          "type": "address"
        },
        {
          "indexed": false,
          "internalType": "string",
          "name": "nickName",
          "type": "string"
        },
        {
          "indexed": false,
          "internalType": "uint256",
          "name": "chips",
          "type": "uint256"
        }
      ],
      "name": "PlayerInfoUpdated",
      "type": "event"
    },
    {
      "anonymous": false,
      "inputs": [
        {
          "indexed": false,
          "internalType": "uint256",
          "name": "roomId",
          "type": "uint256"
        },
        {
          "indexed": false,
          "internalType": "uint256",
          "name": "buyInAmount",
          "type": "uint256"
        }
      ],
      "name": "RoomCreated",
      "type": "event"
    },
    {
      "inputs": [
        {
          "internalType": "uint256",
          "name": "roomId",
          "type": "uint256"
        },
        {
          "internalType": "address",
          "name": "player",
          "type": "address"
        },
        {
          "internalType": "string",
          "name": "nickName",
          "type": "string"
        },
        {
          "internalType": "uint256",
          "name": "chips",
          "type": "uint256"
        }
      ],
      "name": "addPlayer",
      "outputs": [],
      "stateMutability": "nonpayable",
      "type": "function"
    },
    {
      "inputs": [
        {
          "internalType": "uint256",
          "name": "roomId",
          "type": "uint256"
        },
        {
          "internalType": "uint256",
          "name": "buyInAmount",
          "type": "uint256"
        }
      ],
      "name": "createRoom",
      "outputs": [],
      "stateMutability": "nonpayable",
      "type": "function"
    },
    {
      "inputs": [
        {
          "internalType": "uint256",
          "name": "roomId",
          "type": "uint256"
        }
      ],
      "name": "getBuyInAmount",
      "outputs": [
        {
          "internalType": "uint256",
          "name": "",
          "type": "uint256"
        }
      ],
      "stateMutability": "view",
      "type": "function"
    },
    {
      "inputs": [
        {
          "internalType": "uint256",
          "name": "roomId",
          "type": "uint256"
        },
        {
          "internalType": "address",
          "name": "player",
          "type": "address"
        }
      ],
      "name": "getPlayerInfo",
      "outputs": [
        {
          "internalType": "string",
          "name": "nickName",
          "type": "string"
        },
        {
          "internalType": "uint256",
          "name": "chips",
          "type": "uint256"
        }
      ],
      "stateMutability": "view",
      "type": "function"
    },
    {
      "inputs": [
        {
          "internalType": "uint256",
          "name": "roomId",
          "type": "uint256"
        }
      ],
      "name": "getPlayers",
      "outputs": [
        {
          "internalType": "address[]",
          "name": "",
          "type": "address[]"
        }
      ],
      "stateMutability": "view",
      "type": "function"
    },
    {
      "inputs": [],
      "name": "owner",
      "outputs": [
        {
          "internalType": "address",
          "name": "",
          "type": "address"
        }
      ],
      "stateMutability": "view",
      "type": "function"
    },
    {
      "inputs": [],
      "name": "renounceOwnership",
      "outputs": [],
      "stateMutability": "nonpayable",
      "type": "function"
    },
    {
      "inputs": [
        {
          "internalType": "uint256",
          "name": "",
          "type": "uint256"
        }
      ],
      "name": "rooms",
      "outputs": [
        {
          "internalType": "uint256",
          "name": "id",
          "type": "uint256"
        },
        {
          "internalType": "uint256",
          "name": "buyInAmount",
          "type": "uint256"
        }
      ],
      "stateMutability": "view",
      "type": "function"
    },
    {
      "inputs": [
        {
          "internalType": "address",
          "name": "newOwner",
          "type": "address"
        }
      ],
      "name": "transferOwnership",
      "outputs": [],
      "stateMutability": "nonpayable",
      "type": "function"
    },
    {
      "inputs": [
        {
          "internalType": "uint256",
          "name": "roomId",
          "type": "uint256"
        },
        {
          "internalType": "address",
          "name": "player",
          "type": "address"
        },
        {
          "internalType": "string",
          "name": "nickName",
          "type": "string"
        },
        {
          "internalType": "uint256",
          "name": "chips",
          "type": "uint256"
        }
      ],
      "name": "updatePlayerInfo",
      "outputs": [],
      "stateMutability": "nonpayable",
      "type": "function"
    }
  ],
  "bytecode": "0x608060405234801561001057600080fd5b5061001a3361001f565b61006f565b600080546001600160a01b038381166001600160a01b0319831681178455604051919092169283917f8be0079c531659141344cd1fd0a4f28419497f9722a3daafe3b4186f6b6457e09190a35050565b610a0e8061007e6000396000f3fe608060405234801561001057600080fd5b506004361061009e5760003560e01c8063ab196acd11610066578063ab196acd1461014a578063b6104cbb1461015d578063f2fde38b14610170578063f86b0d3f14610183578063fdb4a053146101b557600080fd5b80631bae0ac8146100a35780633ccd10e9146100e4578063460e204914610105578063715018a6146101255780638da5cb5b1461012f575b600080fd5b6100ca6100b1366004610613565b6001602081905260009182526040909120805491015482565b604080519283526020830191909152015b60405180910390f35b6100f76100f2366004610648565b6101c8565b6040516100db9291906106ba565b610118610113366004610613565b610293565b6040516100db91906106dc565b61012d610302565b005b6000546040516001600160a01b0390911681526020016100db565b61012d610158366004610729565b610316565b61012d61016b366004610761565b610376565b61012d61017e366004610834565b610414565b6101a7610191366004610613565b6000908152600160208190526040909120015490565b6040519081526020016100db565b61012d6101c3366004610761565b610492565b60008281526001602081815260408084206001600160a01b038616855260028101909252832091820154825460609493918291829061020690610856565b80601f016020809104026020016040519081016040528092919081815260200182805461023290610856565b801561027f5780601f106102545761010080835404028352916020019161027f565b820191906000526020600020905b81548152906001019060200180831161026257829003601f168201915b505050505091509350935050509250929050565b6000818152600160209081526040918290206003018054835181840281018401909452808452606093928301828280156102f657602002820191906000526020600020905b81546001600160a01b031681526001909101906020018083116102d8575b50505050509050919050565b61030a61055c565b61031460006105b6565b565b61031e61055c565b600082815260016020818152604092839020858155918201849055825185815290810184905290917fce010a20c19ee1b8a42baca23af0187045e22b247e4ba704cc780cf175506d32910160405180910390a1505050565b61037e61055c565b6000848152600160209081526040808320815180830183528681528084018690526001600160a01b0388168552600282019093529220815181906103c290826108df565b50602082015181600101559050507fdbae5f75f0e92c3aae022751d477997524b14910a66731a21af1b008eb28b72085858585604051610405949392919061099f565b60405180910390a15050505050565b61041c61055c565b6001600160a01b0381166104865760405162461bcd60e51b815260206004820152602660248201527f4f776e61626c653a206e6577206f776e657220697320746865207a65726f206160448201526564647265737360d01b60648201526084015b60405180910390fd5b61048f816105b6565b50565b61049a61055c565b6000848152600160209081526040808320815180830183528681528084018690526001600160a01b0388168552600282019093529220815181906104de90826108df565b50602091820151600191820155600383018054918201815560009081529190912001805473ffffffffffffffffffffffffffffffffffffffff19166001600160a01b0386161790556040517f187f9fcb9e879cbf8feb417593580ca42e68a40966ebab19ffa55f32187669b49061040590879087908790879061099f565b6000546001600160a01b031633146103145760405162461bcd60e51b815260206004820181905260248201527f4f776e61626c653a2063616c6c6572206973206e6f7420746865206f776e6572604482015260640161047d565b600080546001600160a01b0383811673ffffffffffffffffffffffffffffffffffffffff19831681178455604051919092169283917f8be0079c531659141344cd1fd0a4f28419497f9722a3daafe3b4186f6b6457e09190a35050565b60006020828403121561062557600080fd5b5035919050565b80356001600160a01b038116811461064357600080fd5b919050565b6000806040838503121561065b57600080fd5b8235915061066b6020840161062c565b90509250929050565b6000815180845260005b8181101561069a5760208185018101518683018201520161067e565b506000602082860101526020601f19601f83011685010191505092915050565b6040815260006106cd6040830185610674565b90508260208301529392505050565b6020808252825182820181905260009190848201906040850190845b8181101561071d5783516001600160a01b0316835292840192918401916001016106f8565b50909695505050505050565b6000806040838503121561073c57600080fd5b50508035926020909101359150565b634e487b7160e01b600052604160045260246000fd5b6000806000806080858703121561077757600080fd5b843593506107876020860161062c565b9250604085013567ffffffffffffffff808211156107a457600080fd5b818701915087601f8301126107b857600080fd5b8135818111156107ca576107ca61074b565b604051601f8201601f19908116603f011681019083821181831017156107f2576107f261074b565b816040528281528a602084870101111561080b57600080fd5b826020860160208301376000928101602001929092525095989497509495606001359450505050565b60006020828403121561084657600080fd5b61084f8261062c565b9392505050565b600181811c9082168061086a57607f821691505b60208210810361088a57634e487b7160e01b600052602260045260246000fd5b50919050565b601f8211156108da57600081815260208120601f850160051c810160208610156108b75750805b601f850160051c820191505b818110156108d6578281556001016108c3565b5050505b505050565b815167ffffffffffffffff8111156108f9576108f961074b565b61090d816109078454610856565b84610890565b602080601f831160018114610942576000841561092a5750858301515b600019600386901b1c1916600185901b1785556108d6565b600085815260208120601f198616915b8281101561097157888601518255948401946001909101908401610952565b508582101561098f5787850151600019600388901b60f8161c191681555b5050505050600190811b01905550565b8481526001600160a01b03841660208201526080604082015260006109c76080830185610674565b90508260608301529594505050505056fea26469706673582212205e4daf7ae6d0fc91b0285904d38b48d4ced747faeff6183b2097991cf5e76ea164736f6c63430008130033",
  "linkReferences": {},
  "deployedLinkReferences": {}
}