{
  "_format": "hh-sol-artifact-1",
  "contractName": "SkiaPokerProxy",
  "sourceName": "contracts/proxies/PokerGameProxy.sol",
  "abi": [
    {
      "inputs": [
        {
          "internalType": "address",
          "name": "initialImplementation",
          "type": "address"
        }
      ],
      "stateMutability": "nonpayable",
      "type": "constructor"
    },
    {
      "anonymous": false,
      "inputs": [
        {
          "indexed": false,
          "internalType": "address",
          "name": "previousAdmin",
          "type": "address"
        },
        {
          "indexed": false,
          "internalType": "address",
          "name": "newAdmin",
          "type": "address"
        }
      ],
      "name": "AdminChanged",
      "type": "event"
    },
    {
      "anonymous": false,
      "inputs": [
        {
          "indexed": true,
          "internalType": "address",
          "name": "beacon",
          "type": "address"
        }
      ],
      "name": "BeaconUpgraded",
      "type": "event"
    },
    {
      "anonymous": false,
      "inputs": [
        {
          "indexed": true,
          "internalType": "address",
          "name": "newImplementation",
          "type": "address"
        }
      ],
      "name": "ImplementationChanged",
      "type": "event"
    },
    {
      "anonymous": false,
      "inputs": [
        {
          "indexed": false,
          "internalType": "uint8",
          "name": "version",
          "type": "uint8"
        }
      ],
      "name": "Initialized",
      "type": "event"
    },
    {
      "anonymous": false,
      "inputs": [
        {
          "indexed": true,
          "internalType": "address",
          "name": "implementation",
          "type": "address"
        }
      ],
      "name": "Upgraded",
      "type": "event"
    },
    {
      "stateMutability": "payable",
      "type": "fallback"
    },
    {
      "inputs": [],
      "name": "admin",
      "outputs": [
        {
          "internalType": "address",
          "name": "",
          "type": "address"
        }
      ],
      "stateMutability": "view",
      "type": "function"
    },
    {
      "inputs": [],
      "name": "proxiableUUID",
      "outputs": [
        {
          "internalType": "bytes32",
          "name": "",
          "type": "bytes32"
        }
      ],
      "stateMutability": "view",
      "type": "function"
    },
    {
      "inputs": [
        {
          "internalType": "address",
          "name": "newImplementation",
          "type": "address"
        }
      ],
      "name": "upgradeTo",
      "outputs": [],
      "stateMutability": "nonpayable",
      "type": "function"
    },
    {
      "inputs": [
        {
          "internalType": "address",
          "name": "newImplementation",
          "type": "address"
        },
        {
          "internalType": "bytes",
          "name": "data",
          "type": "bytes"
        }
      ],
      "name": "upgradeToAndCall",
      "outputs": [],
      "stateMutability": "payable",
      "type": "function"
    },
    {
      "stateMutability": "payable",
      "type": "receive"
    }
  ],
  "bytecode": "0x60a06040523060805234801561001457600080fd5b50604051610dec380380610dec83398101604081905261003391610146565b61003c81610054565b50606580546001600160a01b03191633179055610176565b61005d81610094565b6040516001600160a01b038216907fbc7cd75a20ee27fd9adebab32041f755214dbc6bffa90cc0225b39da2e5c2d3b90600090a250565b6001600160a01b0381163b6101055760405162461bcd60e51b815260206004820152602d60248201527f455243313936373a206e657720696d706c656d656e746174696f6e206973206e60448201526c1bdd08184818dbdb9d1c9858dd609a1b606482015260840160405180910390fd5b7f360894a13ba1a3210667c828492db98dca3e2076cc3735a920a3ca505d382bbc80546001600160a01b0319166001600160a01b0392909216919091179055565b60006020828403121561015857600080fd5b81516001600160a01b038116811461016f57600080fd5b9392505050565b608051610c3f6101ad600039600081816101f90152818161027e01528181610374015281816103f901526104df0152610c3f6000f3fe6080604052600436106100435760003560e01c80633659cfe6146100a55780634f1ef286146100c557806352d1902d146100d8578063f851a440146101005761007a565b3661007a576100786100737f360894a13ba1a3210667c828492db98dca3e2076cc3735a920a3ca505d382bbd5490565b610138565b005b6100786100737f360894a13ba1a3210667c828492db98dca3e2076cc3735a920a3ca505d382bbd5490565b3480156100b157600080fd5b506100786100c0366004610a53565b6101ef565b6100786100d3366004610a84565b61036a565b3480156100e457600080fd5b506100ed6104d2565b6040519081526020015b60405180910390f35b34801561010c57600080fd5b50606554610120906001600160a01b031681565b6040516001600160a01b0390911681526020016100f7565b6000816001600160a01b0316600036604051610155929190610b46565b600060405180830381855af49150503d8060008114610190576040519150601f19603f3d011682016040523d82523d6000602084013e610195565b606091505b50509050806101eb5760405162461bcd60e51b815260206004820152601360248201527f44656c656761746563616c6c206661696c65640000000000000000000000000060448201526064015b60405180910390fd5b5050565b6001600160a01b037f000000000000000000000000000000000000000000000000000000000000000016300361027c5760405162461bcd60e51b815260206004820152602c60248201527f46756e6374696f6e206d7573742062652063616c6c6564207468726f7567682060448201526b19195b1959d85d1958d85b1b60a21b60648201526084016101e2565b7f00000000000000000000000000000000000000000000000000000000000000006001600160a01b03166102d77f360894a13ba1a3210667c828492db98dca3e2076cc3735a920a3ca505d382bbc546001600160a01b031690565b6001600160a01b0316146103425760405162461bcd60e51b815260206004820152602c60248201527f46756e6374696f6e206d7573742062652063616c6c6564207468726f7567682060448201526b6163746976652070726f787960a01b60648201526084016101e2565b61034b81610597565b6040805160008082526020820190925261036791839190610631565b50565b6001600160a01b037f00000000000000000000000000000000000000000000000000000000000000001630036103f75760405162461bcd60e51b815260206004820152602c60248201527f46756e6374696f6e206d7573742062652063616c6c6564207468726f7567682060448201526b19195b1959d85d1958d85b1b60a21b60648201526084016101e2565b7f00000000000000000000000000000000000000000000000000000000000000006001600160a01b03166104527f360894a13ba1a3210667c828492db98dca3e2076cc3735a920a3ca505d382bbc546001600160a01b031690565b6001600160a01b0316146104bd5760405162461bcd60e51b815260206004820152602c60248201527f46756e6374696f6e206d7573742062652063616c6c6564207468726f7567682060448201526b6163746976652070726f787960a01b60648201526084016101e2565b6104c682610597565b6101eb82826001610631565b6000306001600160a01b037f000000000000000000000000000000000000000000000000000000000000000016146105725760405162461bcd60e51b815260206004820152603860248201527f555550535570677261646561626c653a206d757374206e6f742062652063616c60448201527f6c6564207468726f7567682064656c656761746563616c6c000000000000000060648201526084016101e2565b507f360894a13ba1a3210667c828492db98dca3e2076cc3735a920a3ca505d382bbc90565b6065546001600160a01b031633146105f15760405162461bcd60e51b815260206004820152601660248201527f4f6e6c792061646d696e2063616e20757067726164650000000000000000000060448201526064016101e2565b6105fa816107c2565b6040516001600160a01b038216907f2989b377844ae55f0ca303ad21490d8519f8cf871ad6b5ba3dbec736bb54c63f90600090a250565b7f4910fdfa16fed3260ed0e7147f7cc6da11a60208b5b9406d12a635614ffd91435460ff16156106695761066483610802565b505050565b826001600160a01b03166352d1902d6040518163ffffffff1660e01b8152600401602060405180830381865afa9250505080156106c3575060408051601f3d908101601f191682019092526106c091810190610b56565b60015b6107355760405162461bcd60e51b815260206004820152602e60248201527f45524331393637557067726164653a206e657720696d706c656d656e7461746960448201527f6f6e206973206e6f74205555505300000000000000000000000000000000000060648201526084016101e2565b7f360894a13ba1a3210667c828492db98dca3e2076cc3735a920a3ca505d382bbc81146107b65760405162461bcd60e51b815260206004820152602960248201527f45524331393637557067726164653a20756e737570706f727465642070726f786044820152681a58589b195555525160ba1b60648201526084016101e2565b506106648383836108bd565b6107cb81610802565b6040516001600160a01b038216907fbc7cd75a20ee27fd9adebab32041f755214dbc6bffa90cc0225b39da2e5c2d3b90600090a250565b6001600160a01b0381163b61086f5760405162461bcd60e51b815260206004820152602d60248201527f455243313936373a206e657720696d706c656d656e746174696f6e206973206e60448201526c1bdd08184818dbdb9d1c9858dd609a1b60648201526084016101e2565b7f360894a13ba1a3210667c828492db98dca3e2076cc3735a920a3ca505d382bbc805473ffffffffffffffffffffffffffffffffffffffff19166001600160a01b0392909216919091179055565b6108c6836107c2565b6000825111806108d35750805b15610664576108e283836108e8565b50505050565b606061090d8383604051806060016040528060278152602001610be360279139610914565b9392505050565b6060600080856001600160a01b0316856040516109319190610b93565b600060405180830381855af49150503d806000811461096c576040519150601f19603f3d011682016040523d82523d6000602084013e610971565b606091505b50915091506109828683838761098c565b9695505050505050565b606083156109fb5782516000036109f4576001600160a01b0385163b6109f45760405162461bcd60e51b815260206004820152601d60248201527f416464726573733a2063616c6c20746f206e6f6e2d636f6e747261637400000060448201526064016101e2565b5081610a05565b610a058383610a0d565b949350505050565b815115610a1d5781518083602001fd5b8060405162461bcd60e51b81526004016101e29190610baf565b80356001600160a01b0381168114610a4e57600080fd5b919050565b600060208284031215610a6557600080fd5b61090d82610a37565b634e487b7160e01b600052604160045260246000fd5b60008060408385031215610a9757600080fd5b610aa083610a37565b9150602083013567ffffffffffffffff80821115610abd57600080fd5b818501915085601f830112610ad157600080fd5b813581811115610ae357610ae3610a6e565b604051601f8201601f19908116603f01168101908382118183101715610b0b57610b0b610a6e565b81604052828152886020848701011115610b2457600080fd5b8260208601602083013760006020848301015280955050505050509250929050565b8183823760009101908152919050565b600060208284031215610b6857600080fd5b5051919050565b60005b83811015610b8a578181015183820152602001610b72565b50506000910152565b60008251610ba5818460208701610b6f565b9190910192915050565b6020815260008251806020840152610bce816040850160208701610b6f565b601f01601f1916919091016040019291505056fe416464726573733a206c6f772d6c6576656c2064656c65676174652063616c6c206661696c6564a264697066735822122044a26f79a0ece6d65021757a4a7563b0c8ac9ed012dab2eb55710982e1f1d96b64736f6c63430008130033",
  "linkReferences": {},
  "deployedLinkReferences": {}
}