{
  "_format": "hh-sol-artifact-1",
  "contractName": "UserManagement",
  "sourceName": "contracts/Users.sol",
  "abi": [
    {
      "inputs": [],
      "stateMutability": "nonpayable",
      "type": "constructor"
    },
    {
      "anonymous": false,
      "inputs": [
        {
          "indexed": true,
          "internalType": "address",
          "name": "user",
          "type": "address"
        },
        {
          "indexed": false,
          "internalType": "uint256",
          "name": "newBalance",
          "type": "uint256"
        }
      ],
      "name": "BalanceUpdated",
      "type": "event"
    },
    {
      "anonymous": false,
      "inputs": [
        {
          "indexed": true,
          "internalType": "address",
          "name": "previousOwner",
          "type": "address"
        },
        {
          "indexed": true,
          "internalType": "address",
          "name": "newOwner",
          "type": "address"
        }
      ],
      "name": "OwnershipTransferred",
      "type": "event"
    },
    {
      "anonymous": false,
      "inputs": [
        {
          "indexed": true,
          "internalType": "bytes32",
          "name": "role",
          "type": "bytes32"
        },
        {
          "indexed": true,
          "internalType": "bytes32",
          "name": "previousAdminRole",
          "type": "bytes32"
        },
        {
          "indexed": true,
          "internalType": "bytes32",
          "name": "newAdminRole",
          "type": "bytes32"
        }
      ],
      "name": "RoleAdminChanged",
      "type": "event"
    },
    {
      "anonymous": false,
      "inputs": [
        {
          "indexed": true,
          "internalType": "bytes32",
          "name": "role",
          "type": "bytes32"
        },
        {
          "indexed": true,
          "internalType": "address",
          "name": "account",
          "type": "address"
        },
        {
          "indexed": true,
          "internalType": "address",
          "name": "sender",
          "type": "address"
        }
      ],
      "name": "RoleGranted",
      "type": "event"
    },
    {
      "anonymous": false,
      "inputs": [
        {
          "indexed": true,
          "internalType": "bytes32",
          "name": "role",
          "type": "bytes32"
        },
        {
          "indexed": true,
          "internalType": "address",
          "name": "account",
          "type": "address"
        },
        {
          "indexed": true,
          "internalType": "address",
          "name": "sender",
          "type": "address"
        }
      ],
      "name": "RoleRevoked",
      "type": "event"
    },
    {
      "anonymous": false,
      "inputs": [
        {
          "indexed": true,
          "internalType": "address",
          "name": "user",
          "type": "address"
        },
        {
          "indexed": false,
          "internalType": "string",
          "name": "username",
          "type": "string"
        }
      ],
      "name": "UserRegistered",
      "type": "event"
    },
    {
      "inputs": [],
      "name": "DEFAULT_ADMIN_ROLE",
      "outputs": [
        {
          "internalType": "bytes32",
          "name": "",
          "type": "bytes32"
        }
      ],
      "stateMutability": "view",
      "type": "function"
    },
    {
      "inputs": [],
      "name": "GAME_CONTRACT_ROLE",
      "outputs": [
        {
          "internalType": "bytes32",
          "name": "",
          "type": "bytes32"
        }
      ],
      "stateMutability": "view",
      "type": "function"
    },
    {
      "inputs": [
        {
          "internalType": "bytes32",
          "name": "role",
          "type": "bytes32"
        }
      ],
      "name": "getRoleAdmin",
      "outputs": [
        {
          "internalType": "bytes32",
          "name": "",
          "type": "bytes32"
        }
      ],
      "stateMutability": "view",
      "type": "function"
    },
    {
      "inputs": [
        {
          "internalType": "address",
          "name": "_user",
          "type": "address"
        }
      ],
      "name": "getUserBalance",
      "outputs": [
        {
          "internalType": "uint256",
          "name": "",
          "type": "uint256"
        }
      ],
      "stateMutability": "view",
      "type": "function"
    },
    {
      "inputs": [
        {
          "internalType": "address",
          "name": "_user",
          "type": "address"
        }
      ],
      "name": "getUserNickName",
      "outputs": [
        {
          "internalType": "string",
          "name": "",
          "type": "string"
        }
      ],
      "stateMutability": "view",
      "type": "function"
    },
    {
      "inputs": [
        {
          "internalType": "address",
          "name": "account",
          "type": "address"
        }
      ],
      "name": "grantGameContractRole",
      "outputs": [],
      "stateMutability": "nonpayable",
      "type": "function"
    },
    {
      "inputs": [
        {
          "internalType": "bytes32",
          "name": "role",
          "type": "bytes32"
        },
        {
          "internalType": "address",
          "name": "account",
          "type": "address"
        }
      ],
      "name": "grantRole",
      "outputs": [],
      "stateMutability": "nonpayable",
      "type": "function"
    },
    {
      "inputs": [
        {
          "internalType": "bytes32",
          "name": "role",
          "type": "bytes32"
        },
        {
          "internalType": "address",
          "name": "account",
          "type": "address"
        }
      ],
      "name": "hasRole",
      "outputs": [
        {
          "internalType": "bool",
          "name": "",
          "type": "bool"
        }
      ],
      "stateMutability": "view",
      "type": "function"
    },
    {
      "inputs": [],
      "name": "owner",
      "outputs": [
        {
          "internalType": "address",
          "name": "",
          "type": "address"
        }
      ],
      "stateMutability": "view",
      "type": "function"
    },
    {
      "inputs": [
        {
          "internalType": "string",
          "name": "_username",
          "type": "string"
        }
      ],
      "name": "registerUser",
      "outputs": [],
      "stateMutability": "payable",
      "type": "function"
    },
    {
      "inputs": [],
      "name": "renounceOwnership",
      "outputs": [],
      "stateMutability": "nonpayable",
      "type": "function"
    },
    {
      "inputs": [
        {
          "internalType": "bytes32",
          "name": "role",
          "type": "bytes32"
        },
        {
          "internalType": "address",
          "name": "account",
          "type": "address"
        }
      ],
      "name": "renounceRole",
      "outputs": [],
      "stateMutability": "nonpayable",
      "type": "function"
    },
    {
      "inputs": [
        {
          "internalType": "bytes32",
          "name": "role",
          "type": "bytes32"
        },
        {
          "internalType": "address",
          "name": "account",
          "type": "address"
        }
      ],
      "name": "revokeRole",
      "outputs": [],
      "stateMutability": "nonpayable",
      "type": "function"
    },
    {
      "inputs": [
        {
          "internalType": "bytes4",
          "name": "interfaceId",
          "type": "bytes4"
        }
      ],
      "name": "supportsInterface",
      "outputs": [
        {
          "internalType": "bool",
          "name": "",
          "type": "bool"
        }
      ],
      "stateMutability": "view",
      "type": "function"
    },
    {
      "inputs": [
        {
          "internalType": "address",
          "name": "newOwner",
          "type": "address"
        }
      ],
      "name": "transferOwnership",
      "outputs": [],
      "stateMutability": "nonpayable",
      "type": "function"
    },
    {
      "inputs": [
        {
          "internalType": "address",
          "name": "_user",
          "type": "address"
        },
        {
          "internalType": "uint256",
          "name": "_amount",
          "type": "uint256"
        }
      ],
      "name": "updateBalance",
      "outputs": [],
      "stateMutability": "nonpayable",
      "type": "function"
    },
    {
      "inputs": [
        {
          "internalType": "address",
          "name": "",
          "type": "address"
        }
      ],
      "name": "users",
      "outputs": [
        {
          "internalType": "address",
          "name": "userAddress",
          "type": "address"
        },
        {
          "internalType": "string",
          "name": "username",
          "type": "string"
        },
        {
          "internalType": "uint256",
          "name": "balance",
          "type": "uint256"
        }
      ],
      "stateMutability": "view",
      "type": "function"
    },
    {
      "inputs": [
        {
          "internalType": "uint256",
          "name": "_amount",
          "type": "uint256"
        }
      ],
      "name": "withdraw",
      "outputs": [],
      "stateMutability": "nonpayable",
      "type": "function"
    }
  ],
  "bytecode": "0x608060405234801561001057600080fd5b5061001a33610049565b6100447f44718e3514ccd463314f14773a916bc580c9220f29745390a228f1242d73feb133610099565b61012e565b600080546001600160a01b038381166001600160a01b0319831681178455604051919092169283917f8be0079c531659141344cd1fd0a4f28419497f9722a3daafe3b4186f6b6457e09190a35050565b6100a382826100a7565b5050565b60008281526001602090815260408083206001600160a01b038516845290915290205460ff166100a35760008281526001602081815260408084206001600160a01b0386168086529252808420805460ff19169093179092559051339285917f2f8788117e7eff1d82e926ec794901d17c78024a50270940304540a733656f0d9190a45050565b6113578061013d6000396000f3fe6080604052600436106101095760003560e01c80638da5cb5b11610095578063b5e352da11610064578063b5e352da14610318578063d547741f1461034c578063e0b1cccb1461036c578063ed565fd51461038c578063f2fde38b146103b957600080fd5b80638da5cb5b1461026657806391d148541461028e578063a217fddf146102d4578063a87430ba146102e957600080fd5b806336568abe116100dc57806336568abe146101c457806347734892146101e45780634fcdaba81461021e578063704f1b941461023e578063715018a61461025157600080fd5b806301ffc9a71461010e578063248a9ca3146101435780632e1a7d4d146101825780632f2ff15d146101a4575b600080fd5b34801561011a57600080fd5b5061012e610129366004610ebc565b6103d9565b60405190151581526020015b60405180910390f35b34801561014f57600080fd5b5061017461015e366004610ee6565b6000908152600160208190526040909120015490565b60405190815260200161013a565b34801561018e57600080fd5b506101a261019d366004610ee6565b610410565b005b3480156101b057600080fd5b506101a26101bf366004610f1b565b610517565b3480156101d057600080fd5b506101a26101df366004610f1b565b610542565b3480156101f057600080fd5b506101746101ff366004610f47565b6001600160a01b03166000908152600260208190526040909120015490565b34801561022a57600080fd5b506101a2610239366004610f47565b6105ce565b6101a261024c366004610f62565b610603565b34801561025d57600080fd5b506101a2610782565b34801561027257600080fd5b506000546040516001600160a01b03909116815260200161013a565b34801561029a57600080fd5b5061012e6102a9366004610f1b565b60009182526001602090815260408084206001600160a01b0393909316845291905290205460ff1690565b3480156102e057600080fd5b50610174600081565b3480156102f557600080fd5b50610309610304366004610f47565b610796565b60405161013a93929190611024565b34801561032457600080fd5b506101747f44718e3514ccd463314f14773a916bc580c9220f29745390a228f1242d73feb181565b34801561035857600080fd5b506101a2610367366004610f1b565b61084b565b34801561037857600080fd5b506101a2610387366004611056565b610871565b34801561039857600080fd5b506103ac6103a7366004610f47565b610995565b60405161013a9190611080565b3480156103c557600080fd5b506101a26103d4366004610f47565b610a44565b60006001600160e01b03198216637965db0b60e01b148061040a57506301ffc9a760e01b6001600160e01b03198316145b92915050565b33600090815260026020819052604090912001548111156104785760405162461bcd60e51b815260206004820152601460248201527f496e73756666696369656e742062616c616e636500000000000000000000000060448201526064015b60405180910390fd5b336000908152600260208190526040822001805483929061049a9084906110a9565b9091555050604051339082156108fc029083906000818181858888f193505050501580156104cc573d6000803e3d6000fd5b50336000818152600260208181526040928390209091015491519182527f8ad64a0ac7700dd8425ab0499f107cb6e2cd1581d803c5b8c1c79dcb8190b1af910160405180910390a250565b6000828152600160208190526040909120015461053381610aba565b61053d8383610ac4565b505050565b6001600160a01b03811633146105c05760405162461bcd60e51b815260206004820152602f60248201527f416363657373436f6e74726f6c3a2063616e206f6e6c792072656e6f756e636560448201527f20726f6c657320666f722073656c660000000000000000000000000000000000606482015260840161046f565b6105ca8282610b4b565b5050565b6105d6610bce565b6106007f44718e3514ccd463314f14773a916bc580c9220f29745390a228f1242d73feb182610517565b50565b600034116106625760405162461bcd60e51b815260206004820152602660248201527f496e697469616c2062616c616e6365206d75737420626520677265617465722060448201526507468616e20360d41b606482015260840161046f565b6040518060600160405280336001600160a01b0316815260200183838080601f01602080910402602001604051908101604052809392919081815260200183838082843760009201829052509385525050346020938401525033815260028252604090208251815473ffffffffffffffffffffffffffffffffffffffff19166001600160a01b03909116178155908201516001820190610702908261115a565b506040918201516002909101555133907f48cac28ad4dc618e15f4c2dd5e97751182f166de97b25618318b2112aa951a2f90610741908590859061121a565b60405180910390a260405134815233907f8ad64a0ac7700dd8425ab0499f107cb6e2cd1581d803c5b8c1c79dcb8190b1af9060200160405180910390a25050565b61078a610bce565b6107946000610c28565b565b600260205260009081526040902080546001820180546001600160a01b0390921692916107c2906110d2565b80601f01602080910402602001604051908101604052809291908181526020018280546107ee906110d2565b801561083b5780601f106108105761010080835404028352916020019161083b565b820191906000526020600020905b81548152906001019060200180831161081e57829003601f168201915b5050505050908060020154905083565b6000828152600160208190526040909120015461086781610aba565b61053d8383610b4b565b7f44718e3514ccd463314f14773a916bc580c9220f29745390a228f1242d73feb161089b81610aba565b6001600160a01b038316600090815260026020819052604090912001546108c28382611249565b10156109105760405162461bcd60e51b815260206004820152600e60248201527f4f766572666c6f77206572726f72000000000000000000000000000000000000604482015260640161046f565b6001600160a01b0383166000908152600260208190526040822001805484929061093b908490611249565b90915550506001600160a01b0383166000818152600260208181526040928390209091015491519182527f8ad64a0ac7700dd8425ab0499f107cb6e2cd1581d803c5b8c1c79dcb8190b1af910160405180910390a2505050565b6001600160a01b03811660009081526002602052604090206001018054606091906109bf906110d2565b80601f01602080910402602001604051908101604052809291908181526020018280546109eb906110d2565b8015610a385780601f10610a0d57610100808354040283529160200191610a38565b820191906000526020600020905b815481529060010190602001808311610a1b57829003601f168201915b50505050509050919050565b610a4c610bce565b6001600160a01b038116610ab15760405162461bcd60e51b815260206004820152602660248201527f4f776e61626c653a206e6577206f776e657220697320746865207a65726f206160448201526564647265737360d01b606482015260840161046f565b61060081610c28565b6106008133610c85565b60008281526001602090815260408083206001600160a01b038516845290915290205460ff166105ca5760008281526001602081815260408084206001600160a01b0386168086529252808420805460ff19169093179092559051339285917f2f8788117e7eff1d82e926ec794901d17c78024a50270940304540a733656f0d9190a45050565b60008281526001602090815260408083206001600160a01b038516845290915290205460ff16156105ca5760008281526001602090815260408083206001600160a01b0385168085529252808320805460ff1916905551339285917ff6391f5c32d9c69d2a47ea670b442974b53935d1edc7fd64eb21e047a839171b9190a45050565b6000546001600160a01b031633146107945760405162461bcd60e51b815260206004820181905260248201527f4f776e61626c653a2063616c6c6572206973206e6f7420746865206f776e6572604482015260640161046f565b600080546001600160a01b0383811673ffffffffffffffffffffffffffffffffffffffff19831681178455604051919092169283917f8be0079c531659141344cd1fd0a4f28419497f9722a3daafe3b4186f6b6457e09190a35050565b60008281526001602090815260408083206001600160a01b038516845290915290205460ff166105ca57610cb881610cfa565b610cc3836020610d0c565b604051602001610cd492919061125c565b60408051601f198184030181529082905262461bcd60e51b825261046f91600401611080565b606061040a6001600160a01b03831660145b60606000610d1b8360026112dd565b610d26906002611249565b67ffffffffffffffff811115610d3e57610d3e6110bc565b6040519080825280601f01601f191660200182016040528015610d68576020820181803683370190505b509050600360fc1b81600081518110610d8357610d836112f4565b60200101906001600160f81b031916908160001a905350600f60fb1b81600181518110610db257610db26112f4565b60200101906001600160f81b031916908160001a9053506000610dd68460026112dd565b610de1906001611249565b90505b6001811115610e66577f303132333435363738396162636465660000000000000000000000000000000085600f1660108110610e2257610e226112f4565b1a60f81b828281518110610e3857610e386112f4565b60200101906001600160f81b031916908160001a90535060049490941c93610e5f8161130a565b9050610de4565b508315610eb55760405162461bcd60e51b815260206004820181905260248201527f537472696e67733a20686578206c656e67746820696e73756666696369656e74604482015260640161046f565b9392505050565b600060208284031215610ece57600080fd5b81356001600160e01b031981168114610eb557600080fd5b600060208284031215610ef857600080fd5b5035919050565b80356001600160a01b0381168114610f1657600080fd5b919050565b60008060408385031215610f2e57600080fd5b82359150610f3e60208401610eff565b90509250929050565b600060208284031215610f5957600080fd5b610eb582610eff565b60008060208385031215610f7557600080fd5b823567ffffffffffffffff80821115610f8d57600080fd5b818501915085601f830112610fa157600080fd5b813581811115610fb057600080fd5b866020828501011115610fc257600080fd5b60209290920196919550909350505050565b60005b83811015610fef578181015183820152602001610fd7565b50506000910152565b60008151808452611010816020860160208601610fd4565b601f01601f19169290920160200192915050565b6001600160a01b03841681526060602082015260006110466060830185610ff8565b9050826040830152949350505050565b6000806040838503121561106957600080fd5b61107283610eff565b946020939093013593505050565b602081526000610eb56020830184610ff8565b634e487b7160e01b600052601160045260246000fd5b8181038181111561040a5761040a611093565b634e487b7160e01b600052604160045260246000fd5b600181811c908216806110e657607f821691505b60208210810361110657634e487b7160e01b600052602260045260246000fd5b50919050565b601f82111561053d57600081815260208120601f850160051c810160208610156111335750805b601f850160051c820191505b818110156111525782815560010161113f565b505050505050565b815167ffffffffffffffff811115611174576111746110bc565b6111888161118284546110d2565b8461110c565b602080601f8311600181146111bd57600084156111a55750858301515b600019600386901b1c1916600185901b178555611152565b600085815260208120601f198616915b828110156111ec578886015182559484019460019091019084016111cd565b508582101561120a5787850151600019600388901b60f8161c191681555b5050505050600190811b01905550565b60208152816020820152818360408301376000818301604090810191909152601f909201601f19160101919050565b8082018082111561040a5761040a611093565b7f416363657373436f6e74726f6c3a206163636f756e7420000000000000000000815260008351611294816017850160208801610fd4565b7f206973206d697373696e6720726f6c652000000000000000000000000000000060179184019182015283516112d1816028840160208801610fd4565b01602801949350505050565b808202811582820484141761040a5761040a611093565b634e487b7160e01b600052603260045260246000fd5b60008161131957611319611093565b50600019019056fea2646970667358221220da24bb43dd1b8a50baf40a4a23286420e69cafa1f5ce80f2c001b5d87d36b89764736f6c63430008130033",
  "linkReferences": {},
  "deployedLinkReferences": {}
}